{
  "contractName": "ROI_POOL",
  "abi": [
    {
      "inputs": [
        {
          "internalType": "uint256",
          "name": "a",
          "type": "uint256"
        }
      ],
      "name": "changeLimit1",
      "outputs": [],
      "stateMutability": "nonpayable",
      "type": "function"
    },
    {
      "inputs": [
        {
          "internalType": "uint256",
          "name": "b",
          "type": "uint256"
        }
      ],
      "name": "changeLimit2",
      "outputs": [],
      "stateMutability": "nonpayable",
      "type": "function"
    },
    {
      "inputs": [
        {
          "internalType": "address",
          "name": "newOwner",
          "type": "address"
        }
      ],
      "name": "changeOwner",
      "outputs": [],
      "stateMutability": "nonpayable",
      "type": "function"
    },
    {
      "inputs": [
        {
          "internalType": "address",
          "name": "newRelayer",
          "type": "address"
        }
      ],
      "name": "ChangeRelayer",
      "outputs": [],
      "stateMutability": "nonpayable",
      "type": "function"
    },
    {
      "inputs": [],
      "name": "claimCoreTeamTax",
      "outputs": [],
      "stateMutability": "nonpayable",
      "type": "function"
    },
    {
      "inputs": [],
      "name": "claimPoolOwnerTax",
      "outputs": [],
      "stateMutability": "nonpayable",
      "type": "function"
    },
    {
      "inputs": [],
      "name": "Daily1Per",
      "outputs": [
        {
          "internalType": "bool",
          "name": "",
          "type": "bool"
        }
      ],
      "stateMutability": "nonpayable",
      "type": "function"
    },
    {
      "inputs": [
        {
          "internalType": "uint256",
          "name": "reffCode",
          "type": "uint256"
        },
        {
          "internalType": "uint256",
          "name": "amount",
          "type": "uint256"
        }
      ],
      "name": "JOIN",
      "outputs": [],
      "stateMutability": "nonpayable",
      "type": "function"
    },
    {
      "inputs": [],
      "stateMutability": "nonpayable",
      "type": "constructor"
    },
    {
      "inputs": [
        {
          "internalType": "uint256",
          "name": "amount",
          "type": "uint256"
        }
      ],
      "name": "withdraw",
      "outputs": [],
      "stateMutability": "nonpayable",
      "type": "function"
    },
    {
      "inputs": [
        {
          "internalType": "address",
          "name": "",
          "type": "address"
        }
      ],
      "name": "club",
      "outputs": [
        {
          "internalType": "uint256",
          "name": "",
          "type": "uint256"
        }
      ],
      "stateMutability": "view",
      "type": "function"
    },
    {
      "inputs": [
        {
          "internalType": "address",
          "name": "",
          "type": "address"
        }
      ],
      "name": "DirectReferralIncome",
      "outputs": [
        {
          "internalType": "uint256",
          "name": "",
          "type": "uint256"
        }
      ],
      "stateMutability": "view",
      "type": "function"
    },
    {
      "inputs": [],
      "name": "generateRandomNumber",
      "outputs": [
        {
          "internalType": "uint256",
          "name": "",
          "type": "uint256"
        }
      ],
      "stateMutability": "view",
      "type": "function"
    },
    {
      "inputs": [],
      "name": "getAdmin",
      "outputs": [
        {
          "internalType": "address",
          "name": "",
          "type": "address"
        }
      ],
      "stateMutability": "view",
      "type": "function"
    },
    {
      "inputs": [],
      "name": "getAllClubsAmount",
      "outputs": [
        {
          "internalType": "uint256",
          "name": "",
          "type": "uint256"
        },
        {
          "internalType": "uint256",
          "name": "",
          "type": "uint256"
        },
        {
          "internalType": "uint256",
          "name": "",
          "type": "uint256"
        }
      ],
      "stateMutability": "view",
      "type": "function"
    },
    {
      "inputs": [],
      "name": "getAllClubsMem",
      "outputs": [
        {
          "internalType": "uint256",
          "name": "",
          "type": "uint256"
        },
        {
          "internalType": "uint256",
          "name": "",
          "type": "uint256"
        },
        {
          "internalType": "uint256",
          "name": "",
          "type": "uint256"
        }
      ],
      "stateMutability": "view",
      "type": "function"
    },
    {
      "inputs": [
        {
          "internalType": "address",
          "name": "addr",
          "type": "address"
        },
        {
          "internalType": "bool",
          "name": "getWorth",
          "type": "bool"
        }
      ],
      "name": "getAllReffs",
      "outputs": [
        {
          "internalType": "uint256",
          "name": "",
          "type": "uint256"
        }
      ],
      "stateMutability": "view",
      "type": "function"
    },
    {
      "inputs": [],
      "name": "getClub",
      "outputs": [
        {
          "internalType": "uint256",
          "name": "",
          "type": "uint256"
        }
      ],
      "stateMutability": "view",
      "type": "function"
    },
    {
      "inputs": [],
      "name": "getClubIncome",
      "outputs": [
        {
          "internalType": "uint256",
          "name": "",
          "type": "uint256"
        }
      ],
      "stateMutability": "view",
      "type": "function"
    },
    {
      "inputs": [],
      "name": "getClubIncomeForCurrUser",
      "outputs": [
        {
          "internalType": "uint256",
          "name": "",
          "type": "uint256"
        },
        {
          "internalType": "uint256",
          "name": "",
          "type": "uint256"
        }
      ],
      "stateMutability": "view",
      "type": "function"
    },
    {
      "inputs": [],
      "name": "getDailyIncome",
      "outputs": [
        {
          "internalType": "uint256",
          "name": "",
          "type": "uint256"
        }
      ],
      "stateMutability": "view",
      "type": "function"
    },
    {
      "inputs": [],
      "name": "getDirectIncome",
      "outputs": [
        {
          "internalType": "uint256",
          "name": "",
          "type": "uint256"
        }
      ],
      "stateMutability": "view",
      "type": "function"
    },
    {
      "inputs": [],
      "name": "getInvitedPartners",
      "outputs": [
        {
          "internalType": "uint256",
          "name": "",
          "type": "uint256"
        }
      ],
      "stateMutability": "view",
      "type": "function"
    },
    {
      "inputs": [],
      "name": "getMyBalance",
      "outputs": [
        {
          "internalType": "uint256",
          "name": "",
          "type": "uint256"
        }
      ],
      "stateMutability": "view",
      "type": "function"
    },
    {
      "inputs": [],
      "name": "getMyID",
      "outputs": [
        {
          "internalType": "uint256",
          "name": "",
          "type": "uint256"
        }
      ],
      "stateMutability": "view",
      "type": "function"
    },
    {
      "inputs": [],
      "name": "getPackage",
      "outputs": [
        {
          "internalType": "uint256",
          "name": "",
          "type": "uint256"
        }
      ],
      "stateMutability": "view",
      "type": "function"
    },
    {
      "inputs": [
        {
          "internalType": "address",
          "name": "addr",
          "type": "address"
        }
      ],
      "name": "getReffLen",
      "outputs": [
        {
          "internalType": "uint256",
          "name": "",
          "type": "uint256"
        }
      ],
      "stateMutability": "view",
      "type": "function"
    },
    {
      "inputs": [
        {
          "internalType": "address",
          "name": "addr",
          "type": "address"
        }
      ],
      "name": "getTeamLength",
      "outputs": [
        {
          "internalType": "uint256",
          "name": "",
          "type": "uint256"
        }
      ],
      "stateMutability": "view",
      "type": "function"
    },
    {
      "inputs": [],
      "name": "getTotalClubAmmounts",
      "outputs": [
        {
          "internalType": "uint256",
          "name": "",
          "type": "uint256"
        },
        {
          "internalType": "uint256",
          "name": "",
          "type": "uint256"
        },
        {
          "internalType": "uint256",
          "name": "",
          "type": "uint256"
        }
      ],
      "stateMutability": "view",
      "type": "function"
    },
    {
      "inputs": [],
      "name": "getTotalEarnedFromClubs",
      "outputs": [
        {
          "internalType": "uint256",
          "name": "",
          "type": "uint256"
        }
      ],
      "stateMutability": "view",
      "type": "function"
    },
    {
      "inputs": [],
      "name": "getTotalProfit",
      "outputs": [
        {
          "internalType": "uint256",
          "name": "",
          "type": "uint256"
        }
      ],
      "stateMutability": "view",
      "type": "function"
    },
    {
      "inputs": [],
      "name": "getTotalReffIncome",
      "outputs": [
        {
          "internalType": "uint256",
          "name": "",
          "type": "uint256"
        }
      ],
      "stateMutability": "view",
      "type": "function"
    },
    {
      "inputs": [],
      "name": "getTotalTeamBusiness",
      "outputs": [
        {
          "internalType": "uint256",
          "name": "",
          "type": "uint256"
        }
      ],
      "stateMutability": "view",
      "type": "function"
    },
    {
      "inputs": [],
      "name": "getTotalWithdraw",
      "outputs": [
        {
          "internalType": "uint256",
          "name": "",
          "type": "uint256"
        }
      ],
      "stateMutability": "view",
      "type": "function"
    },
    {
      "inputs": [
        {
          "internalType": "uint256",
          "name": "",
          "type": "uint256"
        }
      ],
      "name": "IDS",
      "outputs": [
        {
          "internalType": "uint256",
          "name": "",
          "type": "uint256"
        }
      ],
      "stateMutability": "view",
      "type": "function"
    },
    {
      "inputs": [],
      "name": "PoolCoreTeamTAX",
      "outputs": [
        {
          "internalType": "uint256",
          "name": "",
          "type": "uint256"
        }
      ],
      "stateMutability": "view",
      "type": "function"
    },
    {
      "inputs": [],
      "name": "poolOwnerTAX",
      "outputs": [
        {
          "internalType": "uint256",
          "name": "",
          "type": "uint256"
        }
      ],
      "stateMutability": "view",
      "type": "function"
    },
    {
      "inputs": [
        {
          "internalType": "uint256",
          "name": "",
          "type": "uint256"
        },
        {
          "internalType": "uint256",
          "name": "",
          "type": "uint256"
        }
      ],
      "name": "Referrals",
      "outputs": [
        {
          "internalType": "uint256",
          "name": "",
          "type": "uint256"
        }
      ],
      "stateMutability": "view",
      "type": "function"
    },
    {
      "inputs": [
        {
          "internalType": "uint256",
          "name": "",
          "type": "uint256"
        }
      ],
      "name": "ReferralToAddress",
      "outputs": [
        {
          "internalType": "address",
          "name": "",
          "type": "address"
        }
      ],
      "stateMutability": "view",
      "type": "function"
    },
    {
      "inputs": [
        {
          "internalType": "address",
          "name": "",
          "type": "address"
        }
      ],
      "name": "ReferredBy",
      "outputs": [
        {
          "internalType": "uint256",
          "name": "",
          "type": "uint256"
        }
      ],
      "stateMutability": "view",
      "type": "function"
    },
    {
      "inputs": [
        {
          "internalType": "address",
          "name": "",
          "type": "address"
        }
      ],
      "name": "ROIIncome",
      "outputs": [
        {
          "internalType": "uint256",
          "name": "",
          "type": "uint256"
        }
      ],
      "stateMutability": "view",
      "type": "function"
    },
    {
      "inputs": [
        {
          "internalType": "address",
          "name": "",
          "type": "address"
        }
      ],
      "name": "ROILevelIncome",
      "outputs": [
        {
          "internalType": "uint256",
          "name": "",
          "type": "uint256"
        }
      ],
      "stateMutability": "view",
      "type": "function"
    },
    {
      "inputs": [
        {
          "internalType": "address",
          "name": "",
          "type": "address"
        }
      ],
      "name": "SelectedPackage",
      "outputs": [
        {
          "internalType": "uint256",
          "name": "",
          "type": "uint256"
        }
      ],
      "stateMutability": "view",
      "type": "function"
    },
    {
      "inputs": [],
      "name": "smartContractBalance",
      "outputs": [
        {
          "internalType": "uint256",
          "name": "",
          "type": "uint256"
        }
      ],
      "stateMutability": "view",
      "type": "function"
    },
    {
      "inputs": [
        {
          "internalType": "address",
          "name": "",
          "type": "address"
        }
      ],
      "name": "TotalEarnedFromClubs",
      "outputs": [
        {
          "internalType": "uint256",
          "name": "",
          "type": "uint256"
        }
      ],
      "stateMutability": "view",
      "type": "function"
    },
    {
      "inputs": [
        {
          "internalType": "address",
          "name": "",
          "type": "address"
        }
      ],
      "name": "TotalProfit",
      "outputs": [
        {
          "internalType": "uint256",
          "name": "",
          "type": "uint256"
        }
      ],
      "stateMutability": "view",
      "type": "function"
    },
    {
      "inputs": [
        {
          "internalType": "address",
          "name": "",
          "type": "address"
        }
      ],
      "name": "TotalWithdraw",
      "outputs": [
        {
          "internalType": "uint256",
          "name": "",
          "type": "uint256"
        }
      ],
      "stateMutability": "view",
      "type": "function"
    },
    {
      "inputs": [
        {
          "internalType": "address",
          "name": "",
          "type": "address"
        }
      ],
      "name": "UserBalanceByAddr",
      "outputs": [
        {
          "internalType": "uint256",
          "name": "",
          "type": "uint256"
        }
      ],
      "stateMutability": "view",
      "type": "function"
    },
    {
      "inputs": [
        {
          "internalType": "address",
          "name": "",
          "type": "address"
        }
      ],
      "name": "UsersLevel",
      "outputs": [
        {
          "internalType": "uint256",
          "name": "",
          "type": "uint256"
        }
      ],
      "stateMutability": "view",
      "type": "function"
    },
    {
      "inputs": [
        {
          "internalType": "address",
          "name": "",
          "type": "address"
        }
      ],
      "name": "UsersReferralCodes",
      "outputs": [
        {
          "internalType": "uint256",
          "name": "",
          "type": "uint256"
        }
      ],
      "stateMutability": "view",
      "type": "function"
    }
  ],
  "bytecode": "0x6080604052600160035534801561001557600080fd5b50336000806101000a81548173ffffffffffffffffffffffffffffffffffffffff021916908373ffffffffffffffffffffffffffffffffffffffff1602179055506063600960003373ffffffffffffffffffffffffffffffffffffffff1673ffffffffffffffffffffffffffffffffffffffff168152602001908152602001600020819055506000600560003373ffffffffffffffffffffffffffffffffffffffff1673ffffffffffffffffffffffffffffffffffffffff16815260200190815260200160002081905550336006600080815260200190815260200160002060006101000a81548173ffffffffffffffffffffffffffffffffffffffff021916908373ffffffffffffffffffffffffffffffffffffffff1602179055506000600460003373ffffffffffffffffffffffffffffffffffffffff1673ffffffffffffffffffffffffffffffffffffffff168152602001908152602001600020819055506063600c60003373ffffffffffffffffffffffffffffffffffffffff1673ffffffffffffffffffffffffffffffffffffffff168152602001908152602001600020819055506063600b60003373ffffffffffffffffffffffffffffffffffffffff1673ffffffffffffffffffffffffffffffffffffffff168152602001908152602001600020819055506063601160003373ffffffffffffffffffffffffffffffffffffffff1673ffffffffffffffffffffffffffffffffffffffff1681526020019081526020016000208190555061781180620002566000396000f3fe608060405234801561001057600080fd5b50600436106103a35760003560e01c80635e57385a116101e9578063b8e1ffc81161010f578063da158e7a116100ad578063ebdd2c301161007c578063ebdd2c3014610b73578063ecc8058014610b91578063fefb807714610bc1578063fffa5ba214610bf1576103a3565b8063da158e7a14610afd578063da2d265b14610b1b578063db96765214610b39578063e857307f14610b57576103a3565b8063c838dbc4116100e9578063c838dbc414610a70578063d410c71f14610aa0578063d5e2f75e14610abf578063d70e3acb14610add576103a3565b8063b8e1ffc8146109e0578063bbdba68514610a10578063c26e523414610a40576103a3565b806384adc1e611610187578063a6f9dae111610156578063a6f9dae114610968578063a9a4cbcc14610984578063b10ba58c146109a2578063b3a4bfd5146109c0576103a3565b806384adc1e6146108e057806386363e62146108fe578063897a69ac1461091a5780639e0bf0331461094a576103a3565b80636e9960c3116101c35780636e9960c31461086c57806374d11a3b1461088a578063755d7ef7146108a65780637f1dea11146108d6576103a3565b80635e57385a1461080057806360ead9761461081e57806361cd53f61461084e576103a3565b806335e6c450116102ce5780634bce7a7f1161026c57806357016ff71161023b57806357016ff71461076657806358d28a3a146107965780635a8ec1ac146107c65780635dc0f03f146107e4576103a3565b80634bce7a7f146106ca5780634c738909146106fa5780634cfdec76146107185780634f0d01b214610736576103a3565b80633f32eb81116102a85780633f32eb8114610640578063450e04de1461065e57806348e8b5141461068e57806349e89265146106ac576103a3565b806335e6c450146105d257806338abc968146105f05780633c6f7efd14610610576103a3565b80631ef3eab31161034657806330def4131161031557806330def413146105365780633234e4ab1461055457806332ab3f0014610584578063355cdd5e146105a2576103a3565b80631ef3eab3146104ae57806323eb838e146104de578063293c8906146104fc5780632e1a7d4d1461051a576103a3565b80631b93aa8d116103825780631b93aa8d146104005780631c413d241461041e5780631c7ea7ef1461044e5780631ddff4a81461047e576103a3565b806287fda8146103a857806308d8f21c146103b257806312a92e51146103d0575b600080fd5b6103b0610c0f565b005b6103ba610d14565b6040516103c79190616c32565b60405180910390f35b6103ea60048036038101906103e59190616cbf565b610d1a565b6040516103f79190616c32565b60405180910390f35b610408610d32565b6040516104159190616c32565b60405180910390f35b61043860048036038101906104339190616d18565b610d79565b6040516104459190616d54565b60405180910390f35b61046860048036038101906104639190616cbf565b610dac565b6040516104759190616c32565b60405180910390f35b61049860048036038101906104939190616cbf565b610dc4565b6040516104a59190616c32565b60405180910390f35b6104c860048036038101906104c39190616cbf565b610ddc565b6040516104d59190616c32565b60405180910390f35b6104e6610df4565b6040516104f39190616c32565b60405180910390f35b610504610dfa565b6040516105119190616c32565b60405180910390f35b610534600480360381019061052f9190616d18565b610e00565b005b61053e61109e565b60405161054b9190616c32565b60405180910390f35b61056e60048036038101906105699190616cbf565b6110a4565b60405161057b9190616c32565b60405180910390f35b61058c6110bc565b6040516105999190616c32565b60405180910390f35b6105bc60048036038101906105b79190616cbf565b6111b8565b6040516105c99190616c32565b60405180910390f35b6105da6111d0565b6040516105e79190616c32565b60405180910390f35b6105f8611217565b60405161060793929190616d6f565b60405180910390f35b61062a60048036038101906106259190616cbf565b611289565b6040516106379190616c32565b60405180910390f35b6106486112a1565b6040516106559190616c32565b60405180910390f35b61067860048036038101906106739190616cbf565b6112e8565b6040516106859190616c32565b60405180910390f35b610696611300565b6040516106a39190616c32565b60405180910390f35b6106b4611306565b6040516106c19190616c32565b60405180910390f35b6106e460048036038101906106df9190616cbf565b611363565b6040516106f19190616c32565b60405180910390f35b61070261137b565b60405161070f9190616c32565b60405180910390f35b6107206113c2565b60405161072d9190616c32565b60405180910390f35b610750600480360381019061074b9190616cbf565b6113f7565b60405161075d9190616c32565b60405180910390f35b610780600480360381019061077b9190616cbf565b61140f565b60405161078d9190616c32565b60405180910390f35b6107b060048036038101906107ab9190616cbf565b61195c565b6040516107bd9190616c32565b60405180910390f35b6107ce611974565b6040516107db9190616c32565b60405180910390f35b6107fe60048036038101906107f99190616da6565b6119bb565b005b610808611a03565b6040516108159190616c32565b60405180910390f35b61083860048036038101906108339190616de6565b611a09565b6040516108459190616c32565b60405180910390f35b610856611bd7565b6040516108639190616c32565b60405180910390f35b610874611c1e565b6040516108819190616d54565b60405180910390f35b6108a4600480360381019061089f9190616de6565b611c47565b005b6108c060048036038101906108bb9190616f92565b612717565b6040516108cd91906170ac565b60405180910390f35b6108de612858565b005b6108e861295d565b6040516108f59190616c32565b60405180910390f35b61091860048036038101906109139190616cbf565b6129c0565b005b610934600480360381019061092f91906170ce565b612abf565b6040516109419190616c32565b60405180910390f35b610952612af0565b60405161095f9190616c32565b60405180910390f35b610982600480360381019061097d9190616cbf565b612bed565b005b61098c61317f565b6040516109999190616c32565b60405180910390f35b6109aa6131c6565b6040516109b79190616c32565b60405180910390f35b6109c8613229565b6040516109d793929190616d6f565b60405180910390f35b6109fa60048036038101906109f59190617146565b61329b565b604051610a079190616c32565b60405180910390f35b610a2a6004803603810190610a259190616cbf565b6140f4565b604051610a379190616c32565b60405180910390f35b610a5a6004803603810190610a559190616cbf565b614153565b604051610a679190616c32565b60405180910390f35b610a8a6004803603810190610a859190616cbf565b61416b565b604051610a979190616c32565b60405180910390f35b610aa8614183565b604051610ab6929190617186565b60405180910390f35b610ac76143e4565b604051610ad49190616c32565b60405180910390f35b610ae56143ea565b604051610af493929190616d6f565b60405180910390f35b610b056144ba565b604051610b129190616c32565b60405180910390f35b610b23614626565b604051610b309190616c32565b60405180910390f35b610b4161466d565b604051610b4e9190616c32565b60405180910390f35b610b716004803603810190610b6c9190616da6565b6146b4565b005b610b7b61483b565b604051610b8891906171be565b60405180910390f35b610bab6004803603810190610ba69190616cbf565b615c35565b604051610bb89190616c32565b60405180910390f35b610bdb6004803603810190610bd69190616cbf565b615c4d565b604051610be89190616c32565b60405180910390f35b610bf9615c65565b604051610c069190616c32565b60405180910390f35b60008054906101000a900473ffffffffffffffffffffffffffffffffffffffff1673ffffffffffffffffffffffffffffffffffffffff163373ffffffffffffffffffffffffffffffffffffffff1614610c6757600080fd5b600160009054906101000a900473ffffffffffffffffffffffffffffffffffffffff1673ffffffffffffffffffffffffffffffffffffffff1663a9059cbb33601b546040518363ffffffff1660e01b8152600401610cc69291906171d9565b6020604051808303816000875af1158015610ce5573d6000803e3d6000fd5b505050506040513d601f19601f82011682018060405250810190610d099190617217565b506000601b81905550565b601c5481565b60146020528060005260406000206000915090505481565b6000601160003373ffffffffffffffffffffffffffffffffffffffff1673ffffffffffffffffffffffffffffffffffffffff16815260200190815260200160002054905090565b60066020528060005260406000206000915054906101000a900473ffffffffffffffffffffffffffffffffffffffff1681565b60096020528060005260406000206000915090505481565b600a6020528060005260406000206000915090505481565b600b6020528060005260406000206000915090505481565b60175481565b60195481565b6000600560003373ffffffffffffffffffffffffffffffffffffffff1673ffffffffffffffffffffffffffffffffffffffff1681526020019081526020016000205403610e82576040517f08c379a0000000000000000000000000000000000000000000000000000000008152600401610e79906172a1565b60405180910390fd5b601160003373ffffffffffffffffffffffffffffffffffffffff1673ffffffffffffffffffffffffffffffffffffffff16815260200190815260200160002054600460003373ffffffffffffffffffffffffffffffffffffffff1673ffffffffffffffffffffffffffffffffffffffff16815260200190815260200160002054610f0c91906172f0565b811115610f4e576040517f08c379a0000000000000000000000000000000000000000000000000000000008152600401610f4590617370565b60405180910390fd5b600160009054906101000a900473ffffffffffffffffffffffffffffffffffffffff1673ffffffffffffffffffffffffffffffffffffffff1663a9059cbb33836040518363ffffffff1660e01b8152600401610fab9291906171d9565b6020604051808303816000875af1158015610fca573d6000803e3d6000fd5b505050506040513d601f19601f82011682018060405250810190610fee9190617217565b5080600760003373ffffffffffffffffffffffffffffffffffffffff1673ffffffffffffffffffffffffffffffffffffffff168152602001908152602001600020600082825461103e9190617390565b9250508190555080600460003373ffffffffffffffffffffffffffffffffffffffff1673ffffffffffffffffffffffffffffffffffffffff168152602001908152602001600020600082825461109491906172f0565b9250508190555050565b60165481565b60126020528060005260406000206000915090505481565b60008060009054906101000a900473ffffffffffffffffffffffffffffffffffffffff1673ffffffffffffffffffffffffffffffffffffffff163373ffffffffffffffffffffffffffffffffffffffff161461111757600080fd5b600160009054906101000a900473ffffffffffffffffffffffffffffffffffffffff1673ffffffffffffffffffffffffffffffffffffffff166370a08231306040518263ffffffff1660e01b81526004016111729190616d54565b602060405180830381865afa15801561118f573d6000803e3d6000fd5b505050506040513d601f19601f820116820180604052508101906111b391906173fb565b905090565b60116020528060005260406000206000915090505481565b6000600d60003373ffffffffffffffffffffffffffffffffffffffff1673ffffffffffffffffffffffffffffffffffffffff16815260200190815260200160002054905090565b60008060008060009054906101000a900473ffffffffffffffffffffffffffffffffffffffff1673ffffffffffffffffffffffffffffffffffffffff163373ffffffffffffffffffffffffffffffffffffffff161461127557600080fd5b601554601654601754925092509250909192565b60076020528060005260406000206000915090505481565b6000600760003373ffffffffffffffffffffffffffffffffffffffff1673ffffffffffffffffffffffffffffffffffffffff16815260200190815260200160002054905090565b600f6020528060005260406000206000915090505481565b60185481565b600060086000600560003373ffffffffffffffffffffffffffffffffffffffff1673ffffffffffffffffffffffffffffffffffffffff16815260200190815260200160002054815260200190815260200160002080549050905090565b60136020528060005260406000206000915090505481565b6000600460003373ffffffffffffffffffffffffffffffffffffffff1673ffffffffffffffffffffffffffffffffffffffff16815260200190815260200160002054905090565b6000806113d033600161329b565b905060006113dd3361140f565b905060006113ec838333611a09565b905080935050505090565b600e6020528060005260406000206000915090505481565b60008060086000600560008673ffffffffffffffffffffffffffffffffffffffff1673ffffffffffffffffffffffffffffffffffffffff1681526020019081526020016000205481526020019081526020016000208054905067ffffffffffffffff81111561148157611480616e4f565b5b6040519080825280602002602001820160405280156114af5781602001602082028036833780820191505090505b509050600060086000600560008773ffffffffffffffffffffffffffffffffffffffff1673ffffffffffffffffffffffffffffffffffffffff1681526020019081526020016000205481526020019081526020016000208054905067ffffffffffffffff81111561152357611522616e4f565b5b6040519080825280602002602001820160405280156115515781602001602082028036833780820191505090505b509050600060086000600560008873ffffffffffffffffffffffffffffffffffffffff1673ffffffffffffffffffffffffffffffffffffffff168152602001908152602001600020548152602001908152602001600020805490509050600060086000600560008973ffffffffffffffffffffffffffffffffffffffff1673ffffffffffffffffffffffffffffffffffffffff1681526020019081526020016000205481526020019081526020016000208054905090506001600960008873ffffffffffffffffffffffffffffffffffffffff1673ffffffffffffffffffffffffffffffffffffffff16815260200190815260200160002054106119505760005b60086000600560008a73ffffffffffffffffffffffffffffffffffffffff1673ffffffffffffffffffffffffffffffffffffffff168152602001908152602001600020548152602001908152602001600020805490508110156117505760086000600560008a73ffffffffffffffffffffffffffffffffffffffff1673ffffffffffffffffffffffffffffffffffffffff168152602001908152602001600020548152602001908152602001600020818154811061171357611712617428565b5b906000526020600020015485828151811061173157611730617428565b5b602002602001018181525050808061174890617457565b915050611652565b506001600960008873ffffffffffffffffffffffffffffffffffffffff1673ffffffffffffffffffffffffffffffffffffffff16815260200190815260200160002054111561194f5760005b6001600960008973ffffffffffffffffffffffffffffffffffffffff1673ffffffffffffffffffffffffffffffffffffffff168152602001908152602001600020546117e891906172f0565b81101561194d576117f885615c6b565b9150600082111561193a578167ffffffffffffffff81111561181d5761181c616e4f565b5b60405190808252806020026020018201604052801561184b5781602001602082028036833780820191505090505b5093506118588583612717565b935060609450835167ffffffffffffffff81111561187957611878616e4f565b5b6040519080825280602002602001820160405280156118a75781602001602082028036833780820191505090505b50945060005b84518110156119345760008582815181106118cb576118ca617428565b5b6020026020010151146118e75783806118e390617457565b9450505b8481815181106118fa576118f9617428565b5b602002602001015186828151811061191557611914617428565b5b602002602001018181525050808061192c90617457565b9150506118ad565b50606093505b808061194590617457565b91505061179c565b505b5b81945050505050919050565b60106020528060005260406000206000915090505481565b6000601060003373ffffffffffffffffffffffffffffffffffffffff1673ffffffffffffffffffffffffffffffffffffffff16815260200190815260200160002054905090565b80600460008473ffffffffffffffffffffffffffffffffffffffff1673ffffffffffffffffffffffffffffffffffffffff168152602001908152602001600020819055505050565b60155481565b600068056bc75e2d63100000600460008473ffffffffffffffffffffffffffffffffffffffff1673ffffffffffffffffffffffffffffffffffffffff1681526020019081526020016000205410158015611aaa575068878678326eac900000600460008473ffffffffffffffffffffffffffffffffffffffff1673ffffffffffffffffffffffffffffffffffffffff16815260200190815260200160002054105b15611b4d5769043c33c19375648000008410158015611ad25750690a968163f0a57b40000084105b8015611adf575060328310155b8015611aeb575060c883105b15611af95760019050611bd0565b690a968163f0a57b4000008410158015611b1c5750691fc3842bd1f071c0000084105b8015611b29575060c88310155b8015611b3657506101f483105b15611b445760029050611bd0565b60009050611bd0565b68878678326eac900000600460008473ffffffffffffffffffffffffffffffffffffffff1673ffffffffffffffffffffffffffffffffffffffff1681526020019081526020016000205410158015611baf5750691fc3842bd1f071c000008410155b8015611bbd57506101f48310155b15611bcb5760039050611bd0565b600090505b9392505050565b6000600560003373ffffffffffffffffffffffffffffffffffffffff1673ffffffffffffffffffffffffffffffffffffffff16815260200190815260200160002054905090565b60008060009054906101000a900473ffffffffffffffffffffffffffffffffffffffff16905090565b6113888211158015611c5a575060648210155b611c99576040517f08c379a0000000000000000000000000000000000000000000000000000000008152600401611c9090617511565b60405180910390fd5b60008054906101000a900473ffffffffffffffffffffffffffffffffffffffff1673ffffffffffffffffffffffffffffffffffffffff168173ffffffffffffffffffffffffffffffffffffffff1603611d27576040517f08c379a0000000000000000000000000000000000000000000000000000000008152600401611d1e9061757d565b60405180910390fd5b600160009054906101000a900473ffffffffffffffffffffffffffffffffffffffff1673ffffffffffffffffffffffffffffffffffffffff166323b872dd8230670de0b6b3a764000086611d7b919061759d565b6040518463ffffffff1660e01b8152600401611d99939291906175f7565b6020604051808303816000875af1158015611db8573d6000803e3d6000fd5b505050506040513d601f19601f82011682018060405250810190611ddc9190617217565b506000600560008373ffffffffffffffffffffffffffffffffffffffff1673ffffffffffffffffffffffffffffffffffffffff1681526020019081526020016000205414611f4357670de0b6b3a764000082611e38919061759d565b600460008373ffffffffffffffffffffffffffffffffffffffff1673ffffffffffffffffffffffffffffffffffffffff1681526020019081526020016000206000828254611e869190617390565b92505081905550670de0b6b3a764000082611ea1919061759d565b601160008373ffffffffffffffffffffffffffffffffffffffff1673ffffffffffffffffffffffffffffffffffffffff1681526020019081526020016000206000828254611eef9190617390565b92505081905550611f3e600b60008373ffffffffffffffffffffffffffffffffffffffff1673ffffffffffffffffffffffffffffffffffffffff16815260200190815260200160002054615cd5565b612712565b600073ffffffffffffffffffffffffffffffffffffffff166006600085815260200190815260200160002060009054906101000a900473ffffffffffffffffffffffffffffffffffffffff1673ffffffffffffffffffffffffffffffffffffffff1603611fe5576040517f08c379a0000000000000000000000000000000000000000000000000000000008152600401611fdc9061767a565b60405180910390fd5b600354600560008373ffffffffffffffffffffffffffffffffffffffff1673ffffffffffffffffffffffffffffffffffffffff168152602001908152602001600020819055508060066000600354815260200190815260200160002060006101000a81548173ffffffffffffffffffffffffffffffffffffffff021916908373ffffffffffffffffffffffffffffffffffffffff160217905550670de0b6b3a764000082612093919061759d565b600460008373ffffffffffffffffffffffffffffffffffffffff1673ffffffffffffffffffffffffffffffffffffffff1681526020019081526020016000208190555061271060c8600460008473ffffffffffffffffffffffffffffffffffffffff1673ffffffffffffffffffffffffffffffffffffffff16815260200190815260200160002054612125919061759d565b61212f91906176c9565b601b60008282546121409190617390565b9250508190555061271060c8600460008473ffffffffffffffffffffffffffffffffffffffff1673ffffffffffffffffffffffffffffffffffffffff16815260200190815260200160002054612196919061759d565b6121a091906176c9565b601c60008282546121b19190617390565b925050819055506127106064600460008473ffffffffffffffffffffffffffffffffffffffff1673ffffffffffffffffffffffffffffffffffffffff16815260200190815260200160002054612207919061759d565b61221191906176c9565b601560008282546122229190617390565b925050819055506127106064600460008473ffffffffffffffffffffffffffffffffffffffff1673ffffffffffffffffffffffffffffffffffffffff16815260200190815260200160002054612278919061759d565b61228291906176c9565b601660008282546122939190617390565b9250508190555061271060c8600460008473ffffffffffffffffffffffffffffffffffffffff1673ffffffffffffffffffffffffffffffffffffffff168152602001908152602001600020546122e9919061759d565b6122f391906176c9565b601760008282546123049190617390565b92505081905550600460008273ffffffffffffffffffffffffffffffffffffffff1673ffffffffffffffffffffffffffffffffffffffff16815260200190815260200160002054601160008373ffffffffffffffffffffffffffffffffffffffff1673ffffffffffffffffffffffffffffffffffffffff1681526020019081526020016000208190555060086000848152602001908152602001600020600354908060018154018082558091505060019003906000526020600020016000909190919091505582600b60008373ffffffffffffffffffffffffffffffffffffffff1673ffffffffffffffffffffffffffffffffffffffff1681526020019081526020016000208190555061241783615cd5565b6124536006600085815260200190815260200160002060009054906101000a900473ffffffffffffffffffffffffffffffffffffffff166162ef565b6127106101f4600460008473ffffffffffffffffffffffffffffffffffffffff1673ffffffffffffffffffffffffffffffffffffffff168152602001908152602001600020546124a3919061759d565b6124ad91906176c9565b600f60006006600087815260200190815260200160002060009054906101000a900473ffffffffffffffffffffffffffffffffffffffff1673ffffffffffffffffffffffffffffffffffffffff1673ffffffffffffffffffffffffffffffffffffffff168152602001908152602001600020600082825461252e9190617390565b925050819055506127106101f4600460008473ffffffffffffffffffffffffffffffffffffffff1673ffffffffffffffffffffffffffffffffffffffff16815260200190815260200160002054612585919061759d565b61258f91906176c9565b600a60006006600087815260200190815260200160002060009054906101000a900473ffffffffffffffffffffffffffffffffffffffff1673ffffffffffffffffffffffffffffffffffffffff1673ffffffffffffffffffffffffffffffffffffffff16815260200190815260200160002060008282546126109190617390565b925050819055506127106101f4600460008473ffffffffffffffffffffffffffffffffffffffff1673ffffffffffffffffffffffffffffffffffffffff16815260200190815260200160002054612667919061759d565b61267191906176c9565b600460006006600087815260200190815260200160002060009054906101000a900473ffffffffffffffffffffffffffffffffffffffff1673ffffffffffffffffffffffffffffffffffffffff1673ffffffffffffffffffffffffffffffffffffffff16815260200190815260200160002060008282546126f29190617390565b925050819055506003600081548092919061270c90617457565b91905055505b505050565b606060008267ffffffffffffffff81111561273557612734616e4f565b5b6040519080825280602002602001820160405280156127635781602001602082028036833780820191505090505b5090506000805b855181101561284c5760005b6008600088848151811061278d5761278c617428565b5b602002602001015181526020019081526020016000208054905081101561283857600860008884815181106127c5576127c4617428565b5b6020026020010151815260200190815260200160002081815481106127ed576127ec617428565b5b906000526020600020015484848151811061280b5761280a617428565b5b602002602001018181525050828061282290617457565b935050808061283090617457565b915050612776565b50808061284490617457565b91505061276a565b50819250505092915050565b60008054906101000a900473ffffffffffffffffffffffffffffffffffffffff1673ffffffffffffffffffffffffffffffffffffffff163373ffffffffffffffffffffffffffffffffffffffff16146128b057600080fd5b600160009054906101000a900473ffffffffffffffffffffffffffffffffffffffff1673ffffffffffffffffffffffffffffffffffffffff1663a9059cbb33601c546040518363ffffffff1660e01b815260040161290f9291906171d9565b6020604051808303816000875af115801561292e573d6000803e3d6000fd5b505050506040513d601f19601f820116820180604052508101906129529190617217565b506000601c81905550565b60008060009054906101000a900473ffffffffffffffffffffffffffffffffffffffff1673ffffffffffffffffffffffffffffffffffffffff163373ffffffffffffffffffffffffffffffffffffffff16146129b857600080fd5b601b54905090565b60008054906101000a900473ffffffffffffffffffffffffffffffffffffffff1673ffffffffffffffffffffffffffffffffffffffff163373ffffffffffffffffffffffffffffffffffffffff1614612a1857600080fd5b80600260006101000a81548173ffffffffffffffffffffffffffffffffffffffff021916908373ffffffffffffffffffffffffffffffffffffffff160217905550600260009054906101000a900473ffffffffffffffffffffffffffffffffffffffff16600160006101000a81548173ffffffffffffffffffffffffffffffffffffffff021916908373ffffffffffffffffffffffffffffffffffffffff16021790555050565b60086020528160005260406000208181548110612adb57600080fd5b90600052602060002001600091509150505481565b60006001600c60003373ffffffffffffffffffffffffffffffffffffffff1673ffffffffffffffffffffffffffffffffffffffff1681526020019081526020016000205403612b43576015549050612bea565b6002600c60003373ffffffffffffffffffffffffffffffffffffffff1673ffffffffffffffffffffffffffffffffffffffff1681526020019081526020016000205403612b94576016549050612bea565b6003600c60003373ffffffffffffffffffffffffffffffffffffffff1673ffffffffffffffffffffffffffffffffffffffff1681526020019081526020016000205403612be5576017549050612bea565b600090505b90565b60008054906101000a900473ffffffffffffffffffffffffffffffffffffffff1673ffffffffffffffffffffffffffffffffffffffff163373ffffffffffffffffffffffffffffffffffffffff1614612c4557600080fd5b6000600560008373ffffffffffffffffffffffffffffffffffffffff1673ffffffffffffffffffffffffffffffffffffffff1681526020019081526020016000205414612cc7576040517f08c379a0000000000000000000000000000000000000000000000000000000008152600401612cbe90617792565b60405180910390fd5b6000600960008060009054906101000a900473ffffffffffffffffffffffffffffffffffffffff1673ffffffffffffffffffffffffffffffffffffffff1673ffffffffffffffffffffffffffffffffffffffff168152602001908152602001600020819055506000600560008060009054906101000a900473ffffffffffffffffffffffffffffffffffffffff1673ffffffffffffffffffffffffffffffffffffffff1673ffffffffffffffffffffffffffffffffffffffff168152602001908152602001600020819055506000600460008060009054906101000a900473ffffffffffffffffffffffffffffffffffffffff1673ffffffffffffffffffffffffffffffffffffffff1673ffffffffffffffffffffffffffffffffffffffff168152602001908152602001600020819055506000600c60008060009054906101000a900473ffffffffffffffffffffffffffffffffffffffff1673ffffffffffffffffffffffffffffffffffffffff1673ffffffffffffffffffffffffffffffffffffffff168152602001908152602001600020819055506000600b60008060009054906101000a900473ffffffffffffffffffffffffffffffffffffffff1673ffffffffffffffffffffffffffffffffffffffff1673ffffffffffffffffffffffffffffffffffffffff168152602001908152602001600020819055506000601160008060009054906101000a900473ffffffffffffffffffffffffffffffffffffffff1673ffffffffffffffffffffffffffffffffffffffff1673ffffffffffffffffffffffffffffffffffffffff16815260200190815260200160002081905550806000806101000a81548173ffffffffffffffffffffffffffffffffffffffff021916908373ffffffffffffffffffffffffffffffffffffffff1602179055506063600960008373ffffffffffffffffffffffffffffffffffffffff1673ffffffffffffffffffffffffffffffffffffffff168152602001908152602001600020819055506000600560008373ffffffffffffffffffffffffffffffffffffffff1673ffffffffffffffffffffffffffffffffffffffff16815260200190815260200160002081905550806006600080815260200190815260200160002060006101000a81548173ffffffffffffffffffffffffffffffffffffffff021916908373ffffffffffffffffffffffffffffffffffffffff1602179055506000600460008373ffffffffffffffffffffffffffffffffffffffff1673ffffffffffffffffffffffffffffffffffffffff168152602001908152602001600020819055506063600c60008373ffffffffffffffffffffffffffffffffffffffff1673ffffffffffffffffffffffffffffffffffffffff168152602001908152602001600020819055506063600b60008373ffffffffffffffffffffffffffffffffffffffff1673ffffffffffffffffffffffffffffffffffffffff168152602001908152602001600020819055506063601160008060009054906101000a900473ffffffffffffffffffffffffffffffffffffffff1673ffffffffffffffffffffffffffffffffffffffff1673ffffffffffffffffffffffffffffffffffffffff1681526020019081526020016000208190555050565b6000600a60003373ffffffffffffffffffffffffffffffffffffffff1673ffffffffffffffffffffffffffffffffffffffff16815260200190815260200160002054905090565b60008060009054906101000a900473ffffffffffffffffffffffffffffffffffffffff1673ffffffffffffffffffffffffffffffffffffffff163373ffffffffffffffffffffffffffffffffffffffff161461322157600080fd5b601c54905090565b60008060008060009054906101000a900473ffffffffffffffffffffffffffffffffffffffff1673ffffffffffffffffffffffffffffffffffffffff163373ffffffffffffffffffffffffffffffffffffffff161461328757600080fd5b601854601954601a54925092509250909192565b60008060086000600560008773ffffffffffffffffffffffffffffffffffffffff1673ffffffffffffffffffffffffffffffffffffffff1681526020019081526020016000205481526020019081526020016000208054905067ffffffffffffffff81111561330d5761330c616e4f565b5b60405190808252806020026020018201604052801561333b5781602001602082028036833780820191505090505b509050600060086000600560008873ffffffffffffffffffffffffffffffffffffffff1673ffffffffffffffffffffffffffffffffffffffff1681526020019081526020016000205481526020019081526020016000208054905067ffffffffffffffff8111156133af576133ae616e4f565b5b6040519080825280602002602001820160405280156133dd5781602001602082028036833780820191505090505b50905060006001600960008873ffffffffffffffffffffffffffffffffffffffff1673ffffffffffffffffffffffffffffffffffffffff1681526020019081526020016000205461342e9190617390565b67ffffffffffffffff81111561344757613446616e4f565b5b6040519080825280602002602001820160405280156134755781602001602082028036833780820191505090505b5090506000600c67ffffffffffffffff81111561349557613494616e4f565b5b6040519080825280602002602001820160405280156134c35781602001602082028036833780820191505090505b509050611388816000815181106134dd576134dc617428565b5b6020026020010181815250506103e881600181518110613500576134ff617428565b5b6020026020010181815250506103e88160028151811061352357613522617428565b5b6020026020010181815250506103e88160038151811061354657613545617428565b5b6020026020010181815250506103e88160048151811061356957613568617428565b5b6020026020010181815250506101f48160058151811061358c5761358b617428565b5b6020026020010181815250506101f4816006815181106135af576135ae617428565b5b6020026020010181815250506101f4816007815181106135d2576135d1617428565b5b6020026020010181815250506101f4816008815181106135f5576135f4617428565b5b6020026020010181815250506101f48160098151811061361857613617617428565b5b6020026020010181815250506101f481600a8151811061363b5761363a617428565b5b60200260200101818152505060086000600560008a73ffffffffffffffffffffffffffffffffffffffff1673ffffffffffffffffffffffffffffffffffffffff1681526020019081526020016000205481526020019081526020016000208054905081600b815181106136b1576136b0617428565b5b6020026020010181815250506001600960008973ffffffffffffffffffffffffffffffffffffffff1673ffffffffffffffffffffffffffffffffffffffff16815260200190815260200160002054106140405760005b60086000600560008b73ffffffffffffffffffffffffffffffffffffffff1673ffffffffffffffffffffffffffffffffffffffff16815260200190815260200160002054815260200190815260200160002080549050811015613ae8576001151587151503613936576000600560008a73ffffffffffffffffffffffffffffffffffffffff1673ffffffffffffffffffffffffffffffffffffffff16815260200190815260200160002054905060006008600083815260200190815260200160002083815481106137db576137da617428565b5b9060005260206000200154905060006006600083815260200190815260200160002060009054906101000a900473ffffffffffffffffffffffffffffffffffffffff169050600a60008273ffffffffffffffffffffffffffffffffffffffff1673ffffffffffffffffffffffffffffffffffffffff16815260200190815260200160002054600760008373ffffffffffffffffffffffffffffffffffffffff1673ffffffffffffffffffffffffffffffffffffffff16815260200190815260200160002054600460008473ffffffffffffffffffffffffffffffffffffffff1673ffffffffffffffffffffffffffffffffffffffff168152602001908152602001600020546138ea9190617390565b6138f491906172f0565b866001866139029190617390565b8151811061391357613912617428565b5b602002602001018181516139279190617390565b91508181525050505050613a47565b601160006006600060086000600560008f73ffffffffffffffffffffffffffffffffffffffff1673ffffffffffffffffffffffffffffffffffffffff16815260200190815260200160002054815260200190815260200160002085815481106139a2576139a1617428565b5b9060005260206000200154815260200190815260200160002060009054906101000a900473ffffffffffffffffffffffffffffffffffffffff1673ffffffffffffffffffffffffffffffffffffffff1673ffffffffffffffffffffffffffffffffffffffff1681526020019081526020016000205483600081518110613a2b57613a2a617428565b5b60200260200101818151613a3f9190617390565b915081815250505b60086000600560008b73ffffffffffffffffffffffffffffffffffffffff1673ffffffffffffffffffffffffffffffffffffffff1681526020019081526020016000205481526020019081526020016000208181548110613aab57613aaa617428565b5b9060005260206000200154858281518110613ac957613ac8617428565b5b6020026020010181815250508080613ae090617457565b915050613707565b506000151586151503613bba5761271081600081518110613b0c57613b0b617428565b5b602002602001015183600081518110613b2857613b27617428565b5b6020026020010151613b3a919061759d565b613b4491906176c9565b82600081518110613b5857613b57617428565b5b602002602001018181525050612710603283600081518110613b7d57613b7c617428565b5b6020026020010151613b8f919061759d565b613b9991906176c9565b82600081518110613bad57613bac617428565b5b6020026020010181815250505b6001600960008973ffffffffffffffffffffffffffffffffffffffff1673ffffffffffffffffffffffffffffffffffffffff16815260200190815260200160002054111561403f5760005b6001600960008a73ffffffffffffffffffffffffffffffffffffffff1673ffffffffffffffffffffffffffffffffffffffff16815260200190815260200160002054613c5191906172f0565b81101561403d57613c6185615c6b565b82600b81518110613c7557613c74617428565b5b602002602001018181525050600082600b81518110613c9757613c96617428565b5b6020026020010151111561402a5781600b81518110613cb957613cb8617428565b5b602002602001015167ffffffffffffffff811115613cda57613cd9616e4f565b5b604051908082528060200260200182016040528015613d085781602001602082028036833780820191505090505b509350613d308583600b81518110613d2357613d22617428565b5b6020026020010151612717565b935060609450835167ffffffffffffffff811115613d5157613d50616e4f565b5b604051908082528060200260200182016040528015613d7f5781602001602082028036833780820191505090505b50945060005b8451811015613ea2576011600060066000888581518110613da957613da8617428565b5b6020026020010151815260200190815260200160002060009054906101000a900473ffffffffffffffffffffffffffffffffffffffff1673ffffffffffffffffffffffffffffffffffffffff1673ffffffffffffffffffffffffffffffffffffffff1681526020019081526020016000205484600184613e299190617390565b81518110613e3a57613e39617428565b5b60200260200101818151613e4e9190617390565b91508181525050848181518110613e6857613e67617428565b5b6020026020010151868281518110613e8357613e82617428565b5b6020026020010181815250508080613e9a90617457565b915050613d85565b506000151587151503614025576009811115613f285761271060c884600184613ecb9190617390565b81518110613edc57613edb617428565b5b6020026020010151613eee919061759d565b613ef891906176c9565b83600183613f069190617390565b81518110613f1757613f16617428565b5b602002602001018181525050613fb9565b61271082600183613f399190617390565b81518110613f4a57613f49617428565b5b602002602001015184600184613f609190617390565b81518110613f7157613f70617428565b5b6020026020010151613f83919061759d565b613f8d91906176c9565b83600183613f9b9190617390565b81518110613fac57613fab617428565b5b6020026020010181815250505b612710603284600184613fcc9190617390565b81518110613fdd57613fdc617428565b5b6020026020010151613fef919061759d565b613ff991906176c9565b836001836140079190617390565b8151811061401857614017617428565b5b6020026020010181815250505b606093505b808061403590617457565b915050613c05565b505b5b600081600b8151811061405657614055617428565b5b60200260200101818152505060005b82518110156140cb5782818151811061408157614080617428565b5b602002602001015182600b8151811061409d5761409c617428565b5b602002602001018181516140b19190617390565b9150818152505080806140c390617457565b915050614065565b5080600b815181106140e0576140df617428565b5b602002602001015194505050505092915050565b600060086000600560008573ffffffffffffffffffffffffffffffffffffffff1673ffffffffffffffffffffffffffffffffffffffff168152602001908152602001600020548152602001908152602001600020805490509050919050565b600d6020528060005260406000206000915090505481565b600c6020528060005260406000206000915090505481565b6000806001600c60003373ffffffffffffffffffffffffffffffffffffffff1673ffffffffffffffffffffffffffffffffffffffff168152602001908152602001600020541480156141d9575060185460155410155b15614237576018546015546141ee91906176c9565b600c60003373ffffffffffffffffffffffffffffffffffffffff1673ffffffffffffffffffffffffffffffffffffffff16815260200190815260200160002054915091506143e0565b6002600c60003373ffffffffffffffffffffffffffffffffffffffff1673ffffffffffffffffffffffffffffffffffffffff1681526020019081526020016000205414801561428a575060195460165410155b156142e85760195460165461429f91906176c9565b600c60003373ffffffffffffffffffffffffffffffffffffffff1673ffffffffffffffffffffffffffffffffffffffff16815260200190815260200160002054915091506143e0565b6003600c60003373ffffffffffffffffffffffffffffffffffffffff1673ffffffffffffffffffffffffffffffffffffffff1681526020019081526020016000205414801561433b5750601a5460175410155b1561439957601a5460175461435091906176c9565b600c60003373ffffffffffffffffffffffffffffffffffffffff1673ffffffffffffffffffffffffffffffffffffffff16815260200190815260200160002054915091506143e0565b6000600c60003373ffffffffffffffffffffffffffffffffffffffff1673ffffffffffffffffffffffffffffffffffffffff16815260200190815260200160002054915091505b9091565b601a5481565b6000806000601260003373ffffffffffffffffffffffffffffffffffffffff1673ffffffffffffffffffffffffffffffffffffffff16815260200190815260200160002054601360003373ffffffffffffffffffffffffffffffffffffffff1673ffffffffffffffffffffffffffffffffffffffff16815260200190815260200160002054601460003373ffffffffffffffffffffffffffffffffffffffff1673ffffffffffffffffffffffffffffffffffffffff16815260200190815260200160002054925092509250909192565b60008060005b60086000600560003373ffffffffffffffffffffffffffffffffffffffff1673ffffffffffffffffffffffffffffffffffffffff1681526020019081526020016000205481526020019081526020016000208054905081101561461e57601160006006600060086000600560003373ffffffffffffffffffffffffffffffffffffffff1673ffffffffffffffffffffffffffffffffffffffff168152602001908152602001600020548152602001908152602001600020858154811061458957614588617428565b5b9060005260206000200154815260200190815260200160002060009054906101000a900473ffffffffffffffffffffffffffffffffffffffff1673ffffffffffffffffffffffffffffffffffffffff1673ffffffffffffffffffffffffffffffffffffffff16815260200190815260200160002054826146099190617390565b9150808061461690617457565b9150506144c0565b508091505090565b6000600e60003373ffffffffffffffffffffffffffffffffffffffff1673ffffffffffffffffffffffffffffffffffffffff16815260200190815260200160002054905090565b6000600f60003373ffffffffffffffffffffffffffffffffffffffff1673ffffffffffffffffffffffffffffffffffffffff16815260200190815260200160002054905090565b6001810361471d5780600c60008473ffffffffffffffffffffffffffffffffffffffff1673ffffffffffffffffffffffffffffffffffffffff168152602001908152602001600020819055506018600081548092919061471390617457565b9190505550614837565b600281036147865780600c60008473ffffffffffffffffffffffffffffffffffffffff1673ffffffffffffffffffffffffffffffffffffffff168152602001908152602001600020819055506019600081548092919061477c90617457565b9190505550614836565b600381036147ef5780600c60008473ffffffffffffffffffffffffffffffffffffffff1673ffffffffffffffffffffffffffffffffffffffff16815260200190815260200160002081905550601a60008154809291906147e590617457565b9190505550614835565b6000600c60008473ffffffffffffffffffffffffffffffffffffffff1673ffffffffffffffffffffffffffffffffffffffff168152602001908152602001600020819055505b5b5b5050565b600080600080600190505b600354811015615bbb57606460c8601160006006600086815260200190815260200160002060009054906101000a900473ffffffffffffffffffffffffffffffffffffffff1673ffffffffffffffffffffffffffffffffffffffff1673ffffffffffffffffffffffffffffffffffffffff168152602001908152602001600020546148d1919061759d565b6148db91906176c9565b600a60006006600085815260200190815260200160002060009054906101000a900473ffffffffffffffffffffffffffffffffffffffff1673ffffffffffffffffffffffffffffffffffffffff1673ffffffffffffffffffffffffffffffffffffffff168152602001908152602001600020541061507c576000600a60006006600085815260200190815260200160002060009054906101000a900473ffffffffffffffffffffffffffffffffffffffff1673ffffffffffffffffffffffffffffffffffffffff1673ffffffffffffffffffffffffffffffffffffffff16815260200190815260200160002081905550600160009054906101000a900473ffffffffffffffffffffffffffffffffffffffff1673ffffffffffffffffffffffffffffffffffffffff1663a9059cbb6006600084815260200190815260200160002060009054906101000a900473ffffffffffffffffffffffffffffffffffffffff16601160006006600087815260200190815260200160002060009054906101000a900473ffffffffffffffffffffffffffffffffffffffff1673ffffffffffffffffffffffffffffffffffffffff1673ffffffffffffffffffffffffffffffffffffffff16815260200190815260200160002054600460006006600088815260200190815260200160002060009054906101000a900473ffffffffffffffffffffffffffffffffffffffff1673ffffffffffffffffffffffffffffffffffffffff1673ffffffffffffffffffffffffffffffffffffffff16815260200190815260200160002054614b2d91906172f0565b6040518363ffffffff1660e01b8152600401614b4a9291906171d9565b6020604051808303816000875af1158015614b69573d6000803e3d6000fd5b505050506040513d601f19601f82011682018060405250810190614b8d9190617217565b506000600760006006600085815260200190815260200160002060009054906101000a900473ffffffffffffffffffffffffffffffffffffffff1673ffffffffffffffffffffffffffffffffffffffff1673ffffffffffffffffffffffffffffffffffffffff168152602001908152602001600020819055506000600a60006006600085815260200190815260200160002060009054906101000a900473ffffffffffffffffffffffffffffffffffffffff1673ffffffffffffffffffffffffffffffffffffffff1673ffffffffffffffffffffffffffffffffffffffff168152602001908152602001600020819055506000600460006006600085815260200190815260200160002060009054906101000a900473ffffffffffffffffffffffffffffffffffffffff1673ffffffffffffffffffffffffffffffffffffffff1673ffffffffffffffffffffffffffffffffffffffff168152602001908152602001600020819055506000601160006006600085815260200190815260200160002060009054906101000a900473ffffffffffffffffffffffffffffffffffffffff1673ffffffffffffffffffffffffffffffffffffffff1673ffffffffffffffffffffffffffffffffffffffff168152602001908152602001600020819055506000600d60006006600085815260200190815260200160002060009054906101000a900473ffffffffffffffffffffffffffffffffffffffff1673ffffffffffffffffffffffffffffffffffffffff1673ffffffffffffffffffffffffffffffffffffffff168152602001908152602001600020819055506000600e60006006600085815260200190815260200160002060009054906101000a900473ffffffffffffffffffffffffffffffffffffffff1673ffffffffffffffffffffffffffffffffffffffff1673ffffffffffffffffffffffffffffffffffffffff168152602001908152602001600020819055506000600f60006006600085815260200190815260200160002060009054906101000a900473ffffffffffffffffffffffffffffffffffffffff1673ffffffffffffffffffffffffffffffffffffffff1673ffffffffffffffffffffffffffffffffffffffff168152602001908152602001600020819055506000601060006006600085815260200190815260200160002060009054906101000a900473ffffffffffffffffffffffffffffffffffffffff1673ffffffffffffffffffffffffffffffffffffffff1673ffffffffffffffffffffffffffffffffffffffff16815260200190815260200160002081905550614fc9600b60006006600085815260200190815260200160002060009054906101000a900473ffffffffffffffffffffffffffffffffffffffff1673ffffffffffffffffffffffffffffffffffffffff1673ffffffffffffffffffffffffffffffffffffffff16815260200190815260200160002054615cd5565b61507760066000600b60006006600087815260200190815260200160002060009054906101000a900473ffffffffffffffffffffffffffffffffffffffff1673ffffffffffffffffffffffffffffffffffffffff1673ffffffffffffffffffffffffffffffffffffffff16815260200190815260200160002054815260200190815260200160002060009054906101000a900473ffffffffffffffffffffffffffffffffffffffff166162ef565b615ba8565b6000601160006006600085815260200190815260200160002060009054906101000a900473ffffffffffffffffffffffffffffffffffffffff1673ffffffffffffffffffffffffffffffffffffffff1673ffffffffffffffffffffffffffffffffffffffff168152602001908152602001600020541115615ba7576127106032601160006006600086815260200190815260200160002060009054906101000a900473ffffffffffffffffffffffffffffffffffffffff1673ffffffffffffffffffffffffffffffffffffffff1673ffffffffffffffffffffffffffffffffffffffff16815260200190815260200160002054615179919061759d565b61518391906176c9565b9150600082905082600e60006006600086815260200190815260200160002060009054906101000a900473ffffffffffffffffffffffffffffffffffffffff1673ffffffffffffffffffffffffffffffffffffffff1673ffffffffffffffffffffffffffffffffffffffff168152602001908152602001600020600082825461520c9190617390565b925050819055506000600960006006600086815260200190815260200160002060009054906101000a900473ffffffffffffffffffffffffffffffffffffffff1673ffffffffffffffffffffffffffffffffffffffff1673ffffffffffffffffffffffffffffffffffffffff168152602001908152602001600020541115615366576152cc6006600084815260200190815260200160002060009054906101000a900473ffffffffffffffffffffffffffffffffffffffff16600061329b565b935083836152da9190617390565b925083600d60006006600086815260200190815260200160002060009054906101000a900473ffffffffffffffffffffffffffffffffffffffff1673ffffffffffffffffffffffffffffffffffffffff1673ffffffffffffffffffffffffffffffffffffffff168152602001908152602001600020600082825461535e9190617390565b925050819055505b6153a46006600084815260200190815260200160002060009054906101000a900473ffffffffffffffffffffffffffffffffffffffff16600161329b565b935060006153e46006600085815260200190815260200160002060009054906101000a900473ffffffffffffffffffffffffffffffffffffffff1661140f565b9050600061542686836006600088815260200190815260200160002060009054906101000a900473ffffffffffffffffffffffffffffffffffffffff16611a09565b905084600a60006006600088815260200190815260200160002060009054906101000a900473ffffffffffffffffffffffffffffffffffffffff1673ffffffffffffffffffffffffffffffffffffffff1673ffffffffffffffffffffffffffffffffffffffff16815260200190815260200160002060008282546154aa9190617390565b9250508190555084600460006006600088815260200190815260200160002060009054906101000a900473ffffffffffffffffffffffffffffffffffffffff1673ffffffffffffffffffffffffffffffffffffffff1673ffffffffffffffffffffffffffffffffffffffff16815260200190815260200160002060008282546155339190617390565b92505081905550849250600c60006006600087815260200190815260200160002060009054906101000a900473ffffffffffffffffffffffffffffffffffffffff1673ffffffffffffffffffffffffffffffffffffffff1673ffffffffffffffffffffffffffffffffffffffff1681526020019081526020016000205481146155f3576155f26006600086815260200190815260200160002060009054906101000a900473ffffffffffffffffffffffffffffffffffffffff166162ef565b5b6000600c60006006600088815260200190815260200160002060009054906101000a900473ffffffffffffffffffffffffffffffffffffffff1673ffffffffffffffffffffffffffffffffffffffff1673ffffffffffffffffffffffffffffffffffffffff1681526020019081526020016000205414615acf576001600c60006006600088815260200190815260200160002060009054906101000a900473ffffffffffffffffffffffffffffffffffffffff1673ffffffffffffffffffffffffffffffffffffffff1673ffffffffffffffffffffffffffffffffffffffff168152602001908152602001600020541480156156f3575060185460155410155b156157b25760185460155461570891906176c9565b601260006006600088815260200190815260200160002060009054906101000a900473ffffffffffffffffffffffffffffffffffffffff1673ffffffffffffffffffffffffffffffffffffffff1673ffffffffffffffffffffffffffffffffffffffff16815260200190815260200160002060008282546157899190617390565b925050819055506018546015546157a091906176c9565b856157ab9190617390565b9450615a3a565b6002600c60006006600088815260200190815260200160002060009054906101000a900473ffffffffffffffffffffffffffffffffffffffff1673ffffffffffffffffffffffffffffffffffffffff1673ffffffffffffffffffffffffffffffffffffffff16815260200190815260200160002054148015615838575060195460165410155b156158f75760195460165461584d91906176c9565b601360006006600088815260200190815260200160002060009054906101000a900473ffffffffffffffffffffffffffffffffffffffff1673ffffffffffffffffffffffffffffffffffffffff1673ffffffffffffffffffffffffffffffffffffffff16815260200190815260200160002060008282546158ce9190617390565b925050819055506019546016546158e591906176c9565b856158f09190617390565b9450615a39565b6003600c60006006600088815260200190815260200160002060009054906101000a900473ffffffffffffffffffffffffffffffffffffffff1673ffffffffffffffffffffffffffffffffffffffff1673ffffffffffffffffffffffffffffffffffffffff1681526020019081526020016000205414801561597d5750601a5460175410155b15615a3857601a5460175461599291906176c9565b601460006006600088815260200190815260200160002060009054906101000a900473ffffffffffffffffffffffffffffffffffffffff1673ffffffffffffffffffffffffffffffffffffffff1673ffffffffffffffffffffffffffffffffffffffff1681526020019081526020016000206000828254615a139190617390565b92505081905550601a54601754615a2a91906176c9565b85615a359190617390565b94505b5b5b8285615a4691906172f0565b601060006006600088815260200190815260200160002060009054906101000a900473ffffffffffffffffffffffffffffffffffffffff1673ffffffffffffffffffffffffffffffffffffffff1673ffffffffffffffffffffffffffffffffffffffff1681526020019081526020016000206000828254615ac79190617390565b925050819055505b600160009054906101000a900473ffffffffffffffffffffffffffffffffffffffff1673ffffffffffffffffffffffffffffffffffffffff1663a9059cbb6006600087815260200190815260200160002060009054906101000a900473ffffffffffffffffffffffffffffffffffffffff16876040518363ffffffff1660e01b8152600401615b5f9291906171d9565b6020604051808303816000875af1158015615b7e573d6000803e3d6000fd5b505050506040513d601f19601f82011682018060405250810190615ba29190617217565b505050505b5b8080615bb390617457565b915050614846565b5060185460155410158015615bd257506000601854115b15615be257601560009055615c2c565b60195460165410158015615bf857506000601954115b15615c0857601660009055615c2b565b601a5460175410158015615c1e57506000601a54115b15615c2a576017600090555b5b5b60019250505090565b60046020528060005260406000206000915090505481565b60056020528060005260406000206000915090505481565b601b5481565b60008060005b8351811015615ccb5760086000858381518110615c9157615c90617428565b5b602002602001015181526020019081526020016000208054905082615cb69190617390565b91508080615cc390617457565b915050615c71565b5080915050919050565b600a600860008381526020019081526020016000208054905010615d70576014600960006006600085815260200190815260200160002060009054906101000a900473ffffffffffffffffffffffffffffffffffffffff1673ffffffffffffffffffffffffffffffffffffffff1673ffffffffffffffffffffffffffffffffffffffff168152602001908152602001600020819055506162ec565b6009600860008381526020019081526020016000208054905010615e0b576012600960006006600085815260200190815260200160002060009054906101000a900473ffffffffffffffffffffffffffffffffffffffff1673ffffffffffffffffffffffffffffffffffffffff1673ffffffffffffffffffffffffffffffffffffffff168152602001908152602001600020819055506162eb565b60088060008381526020019081526020016000208054905010615ea5576010600960006006600085815260200190815260200160002060009054906101000a900473ffffffffffffffffffffffffffffffffffffffff1673ffffffffffffffffffffffffffffffffffffffff1673ffffffffffffffffffffffffffffffffffffffff168152602001908152602001600020819055506162ea565b6007600860008381526020019081526020016000208054905010615f4057600f600960006006600085815260200190815260200160002060009054906101000a900473ffffffffffffffffffffffffffffffffffffffff1673ffffffffffffffffffffffffffffffffffffffff1673ffffffffffffffffffffffffffffffffffffffff168152602001908152602001600020819055506162e9565b6006600860008381526020019081526020016000208054905010615fdb57600c600960006006600085815260200190815260200160002060009054906101000a900473ffffffffffffffffffffffffffffffffffffffff1673ffffffffffffffffffffffffffffffffffffffff1673ffffffffffffffffffffffffffffffffffffffff168152602001908152602001600020819055506162e8565b600560086000838152602001908152602001600020805490501061607657600a600960006006600085815260200190815260200160002060009054906101000a900473ffffffffffffffffffffffffffffffffffffffff1673ffffffffffffffffffffffffffffffffffffffff1673ffffffffffffffffffffffffffffffffffffffff168152602001908152602001600020819055506162e7565b6004600860008381526020019081526020016000208054905010616111576008600960006006600085815260200190815260200160002060009054906101000a900473ffffffffffffffffffffffffffffffffffffffff1673ffffffffffffffffffffffffffffffffffffffff1673ffffffffffffffffffffffffffffffffffffffff168152602001908152602001600020819055506162e6565b60036008600083815260200190815260200160002080549050106161ac576006600960006006600085815260200190815260200160002060009054906101000a900473ffffffffffffffffffffffffffffffffffffffff1673ffffffffffffffffffffffffffffffffffffffff1673ffffffffffffffffffffffffffffffffffffffff168152602001908152602001600020819055506162e5565b6002600860008381526020019081526020016000208054905010616247576004600960006006600085815260200190815260200160002060009054906101000a900473ffffffffffffffffffffffffffffffffffffffff1673ffffffffffffffffffffffffffffffffffffffff1673ffffffffffffffffffffffffffffffffffffffff168152602001908152602001600020819055506162e4565b60016008600083815260200190815260200160002080549050106162e2576002600960006006600085815260200190815260200160002060009054906101000a900473ffffffffffffffffffffffffffffffffffffffff1673ffffffffffffffffffffffffffffffffffffffff1673ffffffffffffffffffffffffffffffffffffffff168152602001908152602001600020819055506162e3565b5b5b5b5b5b5b5b5b5b5b50565b60006162fc82600161329b565b905060006163098361140f565b905068056bc75e2d63100000600460008573ffffffffffffffffffffffffffffffffffffffff1673ffffffffffffffffffffffffffffffffffffffff16815260200190815260200160002054101580156163aa575068878678326eac900000600460008573ffffffffffffffffffffffffffffffffffffffff1673ffffffffffffffffffffffffffffffffffffffff16815260200190815260200160002054105b156169275769043c33c193756480000082101580156163d25750690a968163f0a57b40000082105b80156163df575060328110155b80156163eb575060c881105b15616667576000600c60008573ffffffffffffffffffffffffffffffffffffffff1673ffffffffffffffffffffffffffffffffffffffff1681526020019081526020016000205403616499576001600c60008573ffffffffffffffffffffffffffffffffffffffff1673ffffffffffffffffffffffffffffffffffffffff168152602001908152602001600020819055506018600081548092919061648f90617457565b9190505550616662565b6001600c60008573ffffffffffffffffffffffffffffffffffffffff1673ffffffffffffffffffffffffffffffffffffffff168152602001908152602001600020540315616661576002600c60008573ffffffffffffffffffffffffffffffffffffffff1673ffffffffffffffffffffffffffffffffffffffff16815260200190815260200160002054036165a2576019600081548092919061653b906177b2565b91905055506001600c60008573ffffffffffffffffffffffffffffffffffffffff1673ffffffffffffffffffffffffffffffffffffffff168152602001908152602001600020819055506018600081548092919061659890617457565b9190505550616660565b6003600c60008573ffffffffffffffffffffffffffffffffffffffff1673ffffffffffffffffffffffffffffffffffffffff168152602001908152602001600020540361665f57601a60008154809291906165fc906177b2565b91905055506001600c60008573ffffffffffffffffffffffffffffffffffffffff1673ffffffffffffffffffffffffffffffffffffffff168152602001908152602001600020819055506018600081548092919061665990617457565b91905055505b5b5b5b616922565b690a968163f0a57b400000821015801561668a5750691fc3842bd1f071c0000082105b8015616697575060c88110155b80156166a457506101f481105b15616920576000600c60008573ffffffffffffffffffffffffffffffffffffffff1673ffffffffffffffffffffffffffffffffffffffff1681526020019081526020016000205403616752576019600081548092919061670390617457565b91905055506002600c60008573ffffffffffffffffffffffffffffffffffffffff1673ffffffffffffffffffffffffffffffffffffffff1681526020019081526020016000208190555061691b565b6001600c60008573ffffffffffffffffffffffffffffffffffffffff1673ffffffffffffffffffffffffffffffffffffffff168152602001908152602001600020540361681357601860008154809291906167ac906177b2565b91905055506002600c60008573ffffffffffffffffffffffffffffffffffffffff1673ffffffffffffffffffffffffffffffffffffffff168152602001908152602001600020819055506019600081548092919061680990617457565b919050555061691a565b6002600c60008573ffffffffffffffffffffffffffffffffffffffff1673ffffffffffffffffffffffffffffffffffffffff168152602001908152602001600020540315616919576003600c60008573ffffffffffffffffffffffffffffffffffffffff1673ffffffffffffffffffffffffffffffffffffffff168152602001908152602001600020540361691857601a60008154809291906168b5906177b2565b91905055506002600c60008573ffffffffffffffffffffffffffffffffffffffff1673ffffffffffffffffffffffffffffffffffffffff168152602001908152602001600020819055506019600081548092919061691290617457565b91905055505b5b5b5b616921565b5b5b616c14565b68878678326eac900000600460008573ffffffffffffffffffffffffffffffffffffffff1673ffffffffffffffffffffffffffffffffffffffff16815260200190815260200160002054101580156169895750691fc3842bd1f071c000008210155b801561699757506101f48110155b15616c12576000600c60008573ffffffffffffffffffffffffffffffffffffffff1673ffffffffffffffffffffffffffffffffffffffff1681526020019081526020016000205403616a4557601a60008154809291906169f690617457565b91905055506003600c60008573ffffffffffffffffffffffffffffffffffffffff1673ffffffffffffffffffffffffffffffffffffffff16815260200190815260200160002081905550616c0d565b6001600c60008573ffffffffffffffffffffffffffffffffffffffff1673ffffffffffffffffffffffffffffffffffffffff1681526020019081526020016000205403616b065760186000815480929190616a9f906177b2565b91905055506003600c60008573ffffffffffffffffffffffffffffffffffffffff1673ffffffffffffffffffffffffffffffffffffffff16815260200190815260200160002081905550601a6000815480929190616afc90617457565b9190505550616c0c565b6002600c60008573ffffffffffffffffffffffffffffffffffffffff1673ffffffffffffffffffffffffffffffffffffffff1681526020019081526020016000205403616bc75760196000815480929190616b60906177b2565b91905055506003600c60008573ffffffffffffffffffffffffffffffffffffffff1673ffffffffffffffffffffffffffffffffffffffff16815260200190815260200160002081905550601a6000815480929190616bbd90617457565b9190505550616c0b565b6003600c60008573ffffffffffffffffffffffffffffffffffffffff1673ffffffffffffffffffffffffffffffffffffffff16815260200190815260200160002050505b5b5b616c13565b5b5b505050565b6000819050919050565b616c2c81616c19565b82525050565b6000602082019050616c476000830184616c23565b92915050565b6000604051905090565b600080fd5b600080fd5b600073ffffffffffffffffffffffffffffffffffffffff82169050919050565b6000616c8c82616c61565b9050919050565b616c9c81616c81565b8114616ca757600080fd5b50565b600081359050616cb981616c93565b92915050565b600060208284031215616cd557616cd4616c57565b5b6000616ce384828501616caa565b91505092915050565b616cf581616c19565b8114616d0057600080fd5b50565b600081359050616d1281616cec565b92915050565b600060208284031215616d2e57616d2d616c57565b5b6000616d3c84828501616d03565b91505092915050565b616d4e81616c81565b82525050565b6000602082019050616d696000830184616d45565b92915050565b6000606082019050616d846000830186616c23565b616d916020830185616c23565b616d9e6040830184616c23565b949350505050565b60008060408385031215616dbd57616dbc616c57565b5b6000616dcb85828601616caa565b9250506020616ddc85828601616d03565b9150509250929050565b600080600060608486031215616dff57616dfe616c57565b5b6000616e0d86828701616d03565b9350506020616e1e86828701616d03565b9250506040616e2f86828701616caa565b9150509250925092565b600080fd5b6000601f19601f8301169050919050565b7f4e487b7100000000000000000000000000000000000000000000000000000000600052604160045260246000fd5b616e8782616e3e565b810181811067ffffffffffffffff82111715616ea657616ea5616e4f565b5b80604052505050565b6000616eb9616c4d565b9050616ec58282616e7e565b919050565b600067ffffffffffffffff821115616ee557616ee4616e4f565b5b602082029050602081019050919050565b600080fd5b6000616f0e616f0984616eca565b616eaf565b90508083825260208201905060208402830185811115616f3157616f30616ef6565b5b835b81811015616f5a5780616f468882616d03565b845260208401935050602081019050616f33565b5050509392505050565b600082601f830112616f7957616f78616e39565b5b8135616f89848260208601616efb565b91505092915050565b60008060408385031215616fa957616fa8616c57565b5b600083013567ffffffffffffffff811115616fc757616fc6616c5c565b5b616fd385828601616f64565b9250506020616fe485828601616d03565b9150509250929050565b600081519050919050565b600082825260208201905092915050565b6000819050602082019050919050565b61702381616c19565b82525050565b6000617035838361701a565b60208301905092915050565b6000602082019050919050565b600061705982616fee565b6170638185616ff9565b935061706e8361700a565b8060005b8381101561709f5781516170868882617029565b975061709183617041565b925050600181019050617072565b5085935050505092915050565b600060208201905081810360008301526170c6818461704e565b905092915050565b600080604083850312156170e5576170e4616c57565b5b60006170f385828601616d03565b925050602061710485828601616d03565b9150509250929050565b60008115159050919050565b6171238161710e565b811461712e57600080fd5b50565b6000813590506171408161711a565b92915050565b6000806040838503121561715d5761715c616c57565b5b600061716b85828601616caa565b925050602061717c85828601617131565b9150509250929050565b600060408201905061719b6000830185616c23565b6171a86020830184616c23565b9392505050565b6171b88161710e565b82525050565b60006020820190506171d360008301846171af565b92915050565b60006040820190506171ee6000830185616d45565b6171fb6020830184616c23565b9392505050565b6000815190506172118161711a565b92915050565b60006020828403121561722d5761722c616c57565b5b600061723b84828501617202565b91505092915050565b600082825260208201905092915050565b7f796f7520617265206e6f74206c69737465640000000000000000000000000000600082015250565b600061728b601283617244565b915061729682617255565b602082019050919050565b600060208201905081810360008301526172ba8161727e565b9050919050565b7f4e487b7100000000000000000000000000000000000000000000000000000000600052601160045260246000fd5b60006172fb82616c19565b915061730683616c19565b925082821015617319576173186172c1565b5b828203905092915050565b7f496e76616c69642042616c616e63650000000000000000000000000000000000600082015250565b600061735a600f83617244565b915061736582617324565b602082019050919050565b600060208201905081810360008301526173898161734d565b9050919050565b600061739b82616c19565b91506173a683616c19565b9250827fffffffffffffffffffffffffffffffffffffffffffffffffffffffffffffffff038211156173db576173da6172c1565b5b828201905092915050565b6000815190506173f581616cec565b92915050565b60006020828403121561741157617410616c57565b5b600061741f848285016173e6565b91505092915050565b7f4e487b7100000000000000000000000000000000000000000000000000000000600052603260045260246000fd5b600061746282616c19565b91507fffffffffffffffffffffffffffffffffffffffffffffffffffffffffffffffff8203617494576174936172c1565b5b600182019050919050565b7f596f752063616e206e6f74206465706f736974206d6f7265207468616e20243560008201527f30303020616e64206c657373207468616e202431303000000000000000000000602082015250565b60006174fb603683617244565b91506175068261749f565b604082019050919050565b6000602082019050818103600083015261752a816174ee565b9050919050565b7f4f776e65722063616e206e6f74206a6f696e20706f6f6c000000000000000000600082015250565b6000617567601783617244565b915061757282617531565b602082019050919050565b600060208201905081810360008301526175968161755a565b9050919050565b60006175a882616c19565b91506175b383616c19565b9250817fffffffffffffffffffffffffffffffffffffffffffffffffffffffffffffffff04831182151516156175ec576175eb6172c1565b5b828202905092915050565b600060608201905061760c6000830186616d45565b6176196020830185616d45565b6176266040830184616c23565b949350505050565b7f726566657272616c20636f646520646f6573206e6f7420657869737400000000600082015250565b6000617664601c83617244565b915061766f8261762e565b602082019050919050565b6000602082019050818103600083015261769381617657565b9050919050565b7f4e487b7100000000000000000000000000000000000000000000000000000000600052601260045260246000fd5b60006176d482616c19565b91506176df83616c19565b9250826176ef576176ee61769a565b5b828204905092915050565b7f506c656173652073656c65637420616e79206f746865722077616c6c6574207760008201527f68696368206973206e6f7420616c72656164792072656769737465726564206960208201527f6e20524f4920706f6f6c00000000000000000000000000000000000000000000604082015250565b600061777c604a83617244565b9150617787826176fa565b606082019050919050565b600060208201905081810360008301526177ab8161776f565b9050919050565b60006177bd82616c19565b9150600082036177d0576177cf6172c1565b5b60018203905091905056fea26469706673582212207e3624d4819b2cc51112c8882c0a3036b88189f92265360cfb8a1c8c1a14f1c464736f6c634300080e0033",
  "immutableReferences": {},
  "source": "pragma solidity >=0.4.22 <0.9.0;\r\nimport \"@openzeppelin/contracts/token/ERC20/IERC20.sol\";\r\n// import \"https://github.com/OpenZeppelin/openzeppelin-contracts/blob/master/contracts/utils/math/SafeMath.sol\";\r\n// SPDX-License-Identifier: UNLICENSED\r\ncontract ROI_POOL{\r\n    address owner;\r\n    // address owner2;\r\n    IERC20 private Token;\r\n    address private tokenAddr;\r\n    // uint decimals = 6;\r\n    // uint[] public temp;\r\n\r\n   \r\n    uint UserRefferelCodeCount = 1;\r\n \r\n    mapping(address=>uint) public UserBalanceByAddr;\r\n    mapping(address=>uint) public UsersReferralCodes;\r\n    mapping(uint=>address) public ReferralToAddress;\r\n    mapping(address=>uint) public TotalWithdraw;\r\n    mapping(uint=>uint[])  public Referrals;\r\n    mapping(address=>uint) public UsersLevel;\r\n    mapping(address=>uint) public TotalProfit;\r\n    mapping(address=>uint) public ReferredBy;\r\n    mapping(address=>uint) public club;\r\n    mapping(address=>uint) public ROILevelIncome;\r\n    mapping(address=>uint) public ROIIncome;\r\n    mapping(address=>uint) public DirectReferralIncome;\r\n    mapping(address=>uint) public TotalEarnedFromClubs;\r\n    mapping(address=>uint) public SelectedPackage;\r\n    mapping(address=>uint) public TotalEarnedFromClub1;\r\n    mapping(address=>uint) public TotalEarnedFromClub2;\r\n    mapping(address=>uint) public TotalEarnedFromClub3;\r\n    \r\n\r\n    uint public club1;\r\n    uint public club2;\r\n    uint public club3;\r\n    uint public Totalclub1;\r\n    uint public Totalclub2;\r\n    uint public Totalclub3;\r\n    uint public PoolOwner1;\r\n    uint public PoolCoreTeam;\r\n\r\n \r\n    constructor(){\r\n\r\n        owner = msg.sender;\r\n        UsersLevel[msg.sender] = 99;       \r\n        UsersReferralCodes[msg.sender] = 0;   // setting refferel number\r\n        ReferralToAddress[0] = msg.sender;   // setting address on refferel\r\n        UserBalanceByAddr[msg.sender] = 0;        // setting balance with 6 zeros at the end\r\n        club[msg.sender] = 99;\r\n        ReferredBy[msg.sender] = 99;                     // setting referral code  \r\n        SelectedPackage[msg.sender] = 99;   \r\n    }\r\n\r\n\r\n    function AddPaymentMethod(address addr) public onlyOwner {           // this is for testing purpose only\r\n        tokenAddr = addr;\r\n        Token = IERC20(tokenAddr);\r\n    }\r\n\r\n    modifier onlyOwner {\r\n      require(msg.sender == owner);\r\n      _;\r\n   }\r\n\r\n   function getTotalEarnedFromClubs() view public returns(uint){\r\n       return TotalEarnedFromClubs[msg.sender];\r\n    }\r\n\r\n    function getTotalClubAmmounts() view public returns(uint,uint,uint){\r\n        return (TotalEarnedFromClub1[msg.sender],TotalEarnedFromClub2[msg.sender],TotalEarnedFromClub3[msg.sender]);\r\n    }\r\n\r\n    function getClubIncomeForCurrUser() view public returns(uint,uint){\r\n        if(club[msg.sender] == 1 && club1 >= Totalclub1){  \r\n            return (club1 / Totalclub1, club[msg.sender]);\r\n        }else if(club[msg.sender] == 2 && club2 >= Totalclub2){\r\n            return (club2 / Totalclub2, club[msg.sender]);\r\n        }else if(club[msg.sender] == 3 && club3 >= Totalclub3){\r\n            return (club3 / Totalclub3, club[msg.sender]);\r\n        }else{\r\n            return (0,club[msg.sender]);\r\n        }\r\n    }\r\n\r\n\r\n\r\n    function getPackage() view public returns(uint){  // My Referral\r\n        return SelectedPackage[msg.sender];\r\n    }\r\n\r\n    function getReffLen(address addr) view public returns(uint){  // My Referral\r\n        return Referrals[UsersReferralCodes[addr]].length;\r\n    }\r\n\r\n    function getInvitedPartners() view public returns(uint){   // direct referrals\r\n        return Referrals[UsersReferralCodes[msg.sender]].length;\r\n    }\r\n\r\n    function getDailyIncome() view public returns(uint){       // ROI Income\r\n        return ROIIncome[msg.sender];\r\n    }\r\n\r\n    function getTotalReffIncome() view public returns(uint){  // ROI Level Income\r\n        return ROILevelIncome[msg.sender]; \r\n    }\r\n\r\n    function getTotalProfit() view public returns(uint){    // Total Income\r\n        return TotalProfit[msg.sender];\r\n    }\r\n\r\n    function getMyBalance() view public returns(uint){    // Total Income\r\n        return UserBalanceByAddr[msg.sender];\r\n    }\r\n\r\n    function getMyID() view public returns(uint){\r\n        return UsersReferralCodes[msg.sender];\r\n    }\r\n\r\n    function getTotalWithdraw() view public returns(uint){\r\n        return TotalWithdraw[msg.sender];\r\n    }\r\n\r\n    function getClub() view public returns(uint){\r\n        uint tempVar = getAllReffs(msg.sender, true);\r\n        uint teamLength = getTeamLength(msg.sender);\r\n        uint CurrClub = getClubLevel(tempVar, teamLength, msg.sender);\r\n        return CurrClub;\r\n    }\r\n\r\n    function getAdmin() view public returns(address){\r\n        return owner;\r\n    }\r\n\r\n    function getDirectIncome() view public returns(uint){\r\n        return DirectReferralIncome[msg.sender];\r\n    }\r\n\r\n    function getTotalTeamBusiness() view public returns(uint) {\r\n        uint temp;\r\n        for(uint i = 0; i < Referrals[UsersReferralCodes[msg.sender]].length; i++){\r\n            temp = temp + SelectedPackage[ReferralToAddress[Referrals[UsersReferralCodes[msg.sender]][i]]];\r\n        }\r\n        return temp;\r\n    }\r\n\r\n    // ------------------ ADMIN FUNCTIONS --------------------- //\r\n\r\n    function getAllClubsAmount() view public onlyOwner returns(uint,uint,uint){\r\n        return (club1,club2,club3);\r\n    }\r\n\r\n    function getAllClubsMem() view public onlyOwner returns(uint,uint,uint){\r\n        return (Totalclub1,Totalclub2,Totalclub3);\r\n    }\r\n\r\n    function smartContractBalance() view public onlyOwner returns(uint){\r\n        return Token.balanceOf(address(this));\r\n    }\r\n\r\n    function poolOwnerTAX() view public onlyOwner returns(uint) {\r\n        return PoolOwner1;\r\n    }\r\n\r\n    function PoolCoreTeamTAX() view public onlyOwner returns(uint){\r\n        return PoolCoreTeam;\r\n    }\r\n\r\n\r\n    function changeOwner(address newOwner) public onlyOwner{\r\n        require(UsersReferralCodes[newOwner] == 0, \"Please select any other wallet which is not already registered in ROI pool\");\r\n        \r\n        UsersLevel[owner] = 0;       \r\n        UsersReferralCodes[owner] = 0;\r\n        UserBalanceByAddr[owner] = 0;       \r\n        club[owner] = 0;\r\n        ReferredBy[owner] = 0;                    \r\n        SelectedPackage[owner] = 0;\r\n\r\n        owner = newOwner;\r\n\r\n        UsersLevel[newOwner] = 99;       \r\n        UsersReferralCodes[newOwner] = 0;   \r\n        ReferralToAddress[0] = newOwner;  \r\n        UserBalanceByAddr[newOwner] = 0;       \r\n        club[newOwner] = 99;\r\n        ReferredBy[newOwner] = 99;   \r\n        SelectedPackage[owner] = 99;                  \r\n    }\r\n\r\n\r\n    function getClubIncome() view public returns(uint){\r\n        if(club[msg.sender] == 1){\r\n            return club1;\r\n        }else if(club[msg.sender] == 2){\r\n            return club2;\r\n        }else if(club[msg.sender] == 3){\r\n            return club3;\r\n        }else{\r\n            return 0;\r\n        }\r\n    }\r\n    \r\n\r\n\r\n\r\n    function JOIN(uint reffCode, uint amount, address adr) public {              // remove the addr and set msg.sender once project is for live\r\n        require(amount <= 5000 && amount >= 100, \"You can not deposit more than $5000 and less than $100\");\r\n        require(adr!=owner, \"Owner can not join pool\");\r\n        \r\n        // transfer amount first\r\n        Token.transferFrom(adr, address(this), amount * 10 ** 18);\r\n        if(UsersReferralCodes[adr]!=0){\r\n            UserBalanceByAddr[adr] += amount * 10 ** 18;\r\n            SelectedPackage[adr] += amount * 10 ** 18;\r\n            updateLevel(ReferredBy[adr]); // update level\r\n        }else{\r\n            require(ReferralToAddress[reffCode]!=address(0), \"referral code does not exist\");      \r\n            UsersReferralCodes[adr] = UserRefferelCodeCount;   // setting refferel number\r\n            ReferralToAddress[UserRefferelCodeCount] = adr;   // setting address on refferel\r\n            UserBalanceByAddr[adr] = amount * 10 ** 18;        // setting balance with 6 zeros at the end\r\n            PoolOwner1 += UserBalanceByAddr[adr] * 200 / 10000;   // 2% pool owner 1\r\n            PoolCoreTeam += UserBalanceByAddr[adr] * 200 / 10000; // 2% pool core team\r\n            club1 += UserBalanceByAddr[adr] * 100 / 10000;   // 1% for club 1\r\n            club2 += UserBalanceByAddr[adr] * 100 / 10000;  //  1% for club 2\r\n            club3 += UserBalanceByAddr[adr] * 200 / 10000; //   2% for club 3\r\n            SelectedPackage[adr] = UserBalanceByAddr[adr];\r\n            // -- adding increments to inviter stats -- //\r\n            Referrals[reffCode].push(UserRefferelCodeCount); // pushing current user referral code to the referral's array\r\n            ReferredBy[adr] = reffCode;                     // setting referral code\r\n            updateLevel(reffCode);                          // update level\r\n            updateClub(ReferralToAddress[reffCode]);\r\n            DirectReferralIncome[ReferralToAddress[reffCode]] += UserBalanceByAddr[adr] * 500 / 10000;\r\n            TotalProfit[ReferralToAddress[reffCode]] += UserBalanceByAddr[adr] * 500 / 10000;\r\n            UserBalanceByAddr[ReferralToAddress[reffCode]] += UserBalanceByAddr[adr] * 500 / 10000;\r\n            UserRefferelCodeCount++;                        // adding count\r\n        }\r\n        \r\n    }\r\n\r\n    function withdraw(uint amount) public {\r\n        require(UsersReferralCodes[msg.sender] != 0, \"you are not listed\");\r\n        require(amount <= UserBalanceByAddr[msg.sender] - SelectedPackage[msg.sender], \"Invalid Balance\");\r\n        Token.transfer(msg.sender, amount);\r\n        TotalWithdraw[msg.sender] += amount;\r\n        UserBalanceByAddr[msg.sender] -= amount;\r\n    }\r\n\r\n    function claimPoolOwnerTax() public onlyOwner{\r\n        Token.transfer(msg.sender, PoolOwner1);\r\n        PoolOwner1 = 0;\r\n    }\r\n\r\n    function claimCoreTeamTax() public onlyOwner{\r\n        Token.transfer(msg.sender, PoolCoreTeam);\r\n        PoolCoreTeam = 0;\r\n    }\r\n\r\n    \r\n\r\n\r\n    function updateLevel(uint reffCode) internal {\r\n        if(Referrals[reffCode].length >= 10 ){\r\n            UsersLevel[ReferralToAddress[reffCode]] = 20; \r\n        }else if(Referrals[reffCode].length >= 9){\r\n            UsersLevel[ReferralToAddress[reffCode]] = 18;\r\n        }else if(Referrals[reffCode].length >= 8){\r\n            UsersLevel[ReferralToAddress[reffCode]] = 16;\r\n        }else if(Referrals[reffCode].length >= 7){\r\n            UsersLevel[ReferralToAddress[reffCode]] = 15;\r\n        }else if(Referrals[reffCode].length >= 6){\r\n            UsersLevel[ReferralToAddress[reffCode]] = 12;\r\n        }else if(Referrals[reffCode].length >= 5){\r\n            UsersLevel[ReferralToAddress[reffCode]] = 10;\r\n        }else if(Referrals[reffCode].length >= 4){\r\n            UsersLevel[ReferralToAddress[reffCode]] = 8;\r\n        }else if(Referrals[reffCode].length >= 3){\r\n            UsersLevel[ReferralToAddress[reffCode]] = 6;\r\n        }else if(Referrals[reffCode].length >= 2){\r\n            UsersLevel[ReferralToAddress[reffCode]] = 4;\r\n        }else if(Referrals[reffCode].length >= 1){\r\n            UsersLevel[ReferralToAddress[reffCode]] = 2;\r\n        }else{\r\n        }\r\n    }\r\n\r\n\r\n    function setthings(address addr, uint Bamount ) public {\r\n        UserBalanceByAddr[addr] = Bamount;\r\n    }\r\n\r\n\r\n    function setClub( address addr, uint level) public{\r\n        if(level==1){\r\n            club[addr] = level;\r\n            Totalclub1++;\r\n        }else if(level==2){\r\n            club[addr] = level;\r\n            Totalclub2++;\r\n        }else if(level==3){\r\n            club[addr] = level;\r\n            Totalclub3++;\r\n        }else{\r\n            club[addr] = 0;\r\n        }\r\n        \r\n    }\r\n\r\n    function updateClub(address addr) internal {\r\n        \r\n        uint teamWorth = getAllReffs(addr, true);   \r\n        uint teamLength = getTeamLength(addr);\r\n        if(UserBalanceByAddr[addr] >= 100000000000000000000 && UserBalanceByAddr[addr] < 2500000000000000000000){\r\n            if(teamWorth >= 20000000000000000000000 && teamWorth < 50000000000000000000000 && teamLength >= 50 && teamLength < 200){\r\n                if(club[addr]==0){\r\n                    club[addr] = 1;\r\n                    Totalclub1++;\r\n                }else if(club[addr]==1){\r\n                    \r\n                }else if(club[addr]==2){\r\n                    Totalclub2--;\r\n                    club[addr] = 1;\r\n                    Totalclub1++;\r\n                }else if(club[addr]==3){\r\n                    Totalclub3--;\r\n                    club[addr] = 1;\r\n                    Totalclub1++;\r\n                }\r\n            }else if(teamWorth >= 50000000000000000000000 && teamWorth < 150000000000000000000000 && teamLength >= 200 && teamLength < 500){\r\n                if(club[addr]==0){\r\n                    Totalclub2++;\r\n                    club[addr] = 2;\r\n                }else if(club[addr]==1){\r\n                    Totalclub1--;\r\n                    club[addr] = 2;\r\n                    Totalclub2++;\r\n                }else if(club[addr]==2){\r\n                    \r\n                }else if(club[addr]==3){\r\n                    Totalclub3--;\r\n                    club[addr] = 2;\r\n                    Totalclub2++;\r\n                }\r\n                \r\n            }else{\r\n\r\n            }\r\n        }else if(UserBalanceByAddr[addr] >= 2500000000000000000000 && teamWorth >= 150000000000000000000000  && teamLength >= 500){\r\n            if(club[addr]==0){\r\n                Totalclub3++;\r\n                club[addr] = 3;\r\n            }else if(club[addr]==1){\r\n                Totalclub1--;\r\n                club[addr] = 3;\r\n                Totalclub3++;\r\n            }else if(club[addr]==2){\r\n                Totalclub2--;\r\n                club[addr] = 3;\r\n                Totalclub3++;\r\n            }else if(club[addr]==3){\r\n            }\r\n        }else{\r\n\r\n        }\r\n    }\r\n\r\n    function getClubLevel(uint teamWorth, uint teamLength , address addr) view public returns(uint){\r\n        if(UserBalanceByAddr[addr] >= 100000000000000000000 && UserBalanceByAddr[addr] < 2500000000000000000000){\r\n            if(teamWorth >= 20000000000000000000000 && teamWorth < 50000000000000000000000 && teamLength >= 50 && teamLength < 200){\r\n                return 1;\r\n            }else if(teamWorth >= 50000000000000000000000 && teamWorth < 150000000000000000000000 && teamLength >= 200 && teamLength < 500){\r\n                return 2;\r\n            }else{\r\n                return 0;\r\n            }\r\n        }else if(UserBalanceByAddr[addr] >= 2500000000000000000000 && teamWorth >= 150000000000000000000000  && teamLength >= 500){\r\n            return 3;\r\n        }else{\r\n            return 0;\r\n        }\r\n    }\r\n\r\n    \r\n\r\n    function Daily1Per() public returns(bool){\r\n        uint tempVar;\r\n        uint ToBePaid = 0;\r\n        for(uint i = 1 ; i < UserRefferelCodeCount ; i++){\r\n            if(TotalProfit[ReferralToAddress[i]] >= (SelectedPackage[ReferralToAddress[i]] * 200 / 100 )){\r\n                TotalProfit[ReferralToAddress[i]] = 0;\r\n                Token.transfer(ReferralToAddress[i], UserBalanceByAddr[ReferralToAddress[i]] - SelectedPackage[ReferralToAddress[i]]);\r\n                TotalWithdraw[ReferralToAddress[i]] = 0;\r\n                TotalProfit[ReferralToAddress[i]] = 0;\r\n                UserBalanceByAddr[ReferralToAddress[i]] = 0;\r\n                SelectedPackage[ReferralToAddress[i]] = 0;\r\n                ROILevelIncome[ReferralToAddress[i]] = 0;\r\n                ROIIncome[ReferralToAddress[i]] = 0;\r\n                DirectReferralIncome[ReferralToAddress[i]] = 0;\r\n                TotalEarnedFromClubs[ReferralToAddress[i]] = 0;\r\n                updateLevel(ReferredBy[ReferralToAddress[i]]);                          \r\n                updateClub(ReferralToAddress[ReferredBy[ReferralToAddress[i]]]);\r\n            }else if(SelectedPackage[ReferralToAddress[i]] > 0){\r\n                ToBePaid = SelectedPackage[ReferralToAddress[i]] * 50 / 10000;\r\n                uint temper = ToBePaid;\r\n                ROIIncome[ReferralToAddress[i]] += ToBePaid;\r\n                if(UsersLevel[ReferralToAddress[i]]>0){\r\n                    tempVar = getAllReffs(ReferralToAddress[i], false);\r\n                    ToBePaid += tempVar;\r\n                    ROILevelIncome[ReferralToAddress[i]] += tempVar;\r\n                }\r\n                tempVar = getAllReffs(ReferralToAddress[i], true);\r\n                uint teamLength = getTeamLength(ReferralToAddress[i]);\r\n                uint CurrClub = getClubLevel(tempVar, teamLength, ReferralToAddress[i]);\r\n                TotalProfit[ReferralToAddress[i]] += ToBePaid;\r\n                UserBalanceByAddr[ReferralToAddress[i]] += ToBePaid;\r\n                temper = ToBePaid;\r\n                if(CurrClub != club[ReferralToAddress[i]]){\r\n                    updateClub(ReferralToAddress[i]);\r\n                }\r\n                if(club[ReferralToAddress[i]] != 0){\r\n                    if(club[ReferralToAddress[i]] == 1 && club1 >= Totalclub1){\r\n                        TotalEarnedFromClub1[ReferralToAddress[i]] += club1 / Totalclub1;\r\n                        ToBePaid += club1 / Totalclub1;\r\n                    }else if(club[ReferralToAddress[i]] == 2 && club2 >= Totalclub2){\r\n                        TotalEarnedFromClub2[ReferralToAddress[i]] += club2 / Totalclub2;\r\n                        ToBePaid += club2 / Totalclub2;\r\n                    }else if(club[ReferralToAddress[i]] == 3 && club3 >= Totalclub3){\r\n                        TotalEarnedFromClub3[ReferralToAddress[i]] += club3 / Totalclub3;\r\n                        ToBePaid += club3 / Totalclub3;\r\n                    }\r\n                    TotalEarnedFromClubs[ReferralToAddress[i]] += ToBePaid - temper;\r\n                }\r\n                Token.transfer(ReferralToAddress[i], ToBePaid);\r\n            }\r\n        }\r\n        if(club1 >= Totalclub1 && Totalclub1 > 0 ){\r\n            delete club1;\r\n        }else if(club2 >= Totalclub2 && Totalclub2 > 0){\r\n            delete club2;\r\n        }else if(club3 >= Totalclub3 && Totalclub3 > 0){\r\n            delete club3;\r\n        }\r\n        return true;\r\n    }\r\n\r\n \r\n    \r\n    function getAllReffs(address addr, bool getWorth) public view returns(uint) {\r\n        uint[] memory CurrLevelReffs = new uint[](Referrals[UsersReferralCodes[addr]].length);\r\n        uint[] memory tempArr = new uint[](Referrals[UsersReferralCodes[addr]].length);\r\n        uint[] memory AmountToBePaid = new uint[](UsersLevel[addr]+1);\r\n        uint[] memory LevelPer = new uint[](12);\r\n        LevelPer[0] = 5000;  \r\n        LevelPer[1] = 1000;\r\n        LevelPer[2] = 1000;\r\n        LevelPer[3] = 1000;\r\n        LevelPer[4] = 1000;\r\n        LevelPer[5] = 500;\r\n        LevelPer[6] = 500;\r\n        LevelPer[7] = 500;\r\n        LevelPer[8] = 500;\r\n        LevelPer[9] = 500;\r\n        LevelPer[10] = 500;\r\n        LevelPer[11] = Referrals[UsersReferralCodes[addr]].length;\r\n        \r\n        if(UsersLevel[addr] >= 1){\r\n            for(uint i = 0; i < Referrals[UsersReferralCodes[addr]].length; i++){\r\n                if(getWorth == true){\r\n                    uint a = UsersReferralCodes[addr];\r\n                    uint b = Referrals[a][i];\r\n                    address c = ReferralToAddress[b];\r\n                    AmountToBePaid[i+1] += ((UserBalanceByAddr[c] + TotalWithdraw[c]) - TotalProfit[c]);\r\n                }else{\r\n                    AmountToBePaid[0] += SelectedPackage[ReferralToAddress[Referrals[UsersReferralCodes[addr]][i]]];\r\n                }\r\n                \r\n                CurrLevelReffs[i] = Referrals[UsersReferralCodes[addr]][i];\r\n            }\r\n            if(getWorth == false){\r\n                AmountToBePaid[0] = AmountToBePaid[0] * LevelPer[0] /10000;\r\n                AmountToBePaid[0] = AmountToBePaid[0] * 50 / 10000;\r\n            }\r\n            if(UsersLevel[addr]>1){\r\n                for(uint i = 0 ; i < UsersLevel[addr]-1; i++){\r\n                    LevelPer[11] = getReffLen(CurrLevelReffs);\r\n                    if(LevelPer[11] > 0) {\r\n                        tempArr = new uint[](LevelPer[11]);\r\n                        tempArr = getReff(CurrLevelReffs, LevelPer[11]);\r\n                        delete CurrLevelReffs;\r\n                        CurrLevelReffs = new uint[](tempArr.length);\r\n                            for(uint j = 0 ; j < tempArr.length ; j++){\r\n                                AmountToBePaid[i+1] += SelectedPackage[ReferralToAddress[tempArr[j]]];\r\n                                CurrLevelReffs[j] = tempArr[j];\r\n                            }\r\n                        if(getWorth == false){\r\n                            if(i > 9){\r\n                                AmountToBePaid[i+1] = AmountToBePaid[i+1] * 200 /10000;\r\n                            }else{\r\n                                AmountToBePaid[i+1] = AmountToBePaid[i+1] * LevelPer[i+1] /10000;\r\n                            }\r\n                            AmountToBePaid[i+1] = AmountToBePaid[i+1] * 50 / 10000;\r\n                        }\r\n                        delete tempArr;\r\n                    }\r\n                }\r\n            }\r\n\r\n        }\r\n        LevelPer[11] = 0;\r\n        for(uint i = 0 ; i < AmountToBePaid.length ; i++){\r\n            LevelPer[11] += AmountToBePaid[i];\r\n        }\r\n        return LevelPer[11];\r\n    }\r\n\r\n\r\n    \r\n   \r\n\r\n    \r\n    function getTeamLength(address addr) public view returns(uint){\r\n        uint[] memory CurrLevelReffs = new uint[](Referrals[UsersReferralCodes[addr]].length);\r\n        uint[] memory tempArr = new uint[](Referrals[UsersReferralCodes[addr]].length);\r\n        uint teamLength = Referrals[UsersReferralCodes[addr]].length;\r\n        uint len = Referrals[UsersReferralCodes[addr]].length;\r\n        \r\n        if(UsersLevel[addr] >= 1){\r\n            for(uint i = 0; i < Referrals[UsersReferralCodes[addr]].length; i++){\r\n            CurrLevelReffs[i] = Referrals[UsersReferralCodes[addr]][i];\r\n            }\r\n            if(UsersLevel[addr]>1){\r\n                for(uint i = 0 ; i < UsersLevel[addr]-1; i++){\r\n                    len = getReffLen(CurrLevelReffs);\r\n                    if(len > 0) {\r\n                        tempArr = new uint[](len);\r\n                        tempArr = getReff(CurrLevelReffs, len);\r\n                        delete CurrLevelReffs;\r\n                        CurrLevelReffs = new uint[](tempArr.length);\r\n                            for(uint j = 0 ; j < tempArr.length ; j++){\r\n                                if(tempArr[j]!=0){\r\n                                    teamLength++;\r\n                                }\r\n                                CurrLevelReffs[j] = tempArr[j];\r\n                                // calculate the amount for i level here later\r\n                            }\r\n                        delete tempArr;\r\n                    }\r\n                }\r\n            }\r\n        }\r\n        return teamLength;\r\n    }\r\n\r\n    function getReffLen(uint[] memory CurrRefArr) view internal returns(uint){\r\n        uint tempLen;\r\n        for(uint i = 0 ; i < CurrRefArr.length ; i++ ){\r\n            tempLen =  tempLen + Referrals[CurrRefArr[i]].length ;\r\n        }\r\n        return tempLen;\r\n    }\r\n\r\n \r\n    function getReff(uint[] memory CurrRefArr, uint Len) view public returns(uint[] memory){\r\n        uint[] memory CurrLevelReffs = new uint[](Len);\r\n        uint tempLen = 0; \r\n \r\n        for(uint i = 0 ; i < CurrRefArr.length ; i++ ){\r\n            for(uint j = 0 ; j < Referrals[CurrRefArr[i]].length ; j++){\r\n                CurrLevelReffs[tempLen] = Referrals[CurrRefArr[i]][j];\r\n                tempLen++;\r\n            }\r\n        }\r\n        return (CurrLevelReffs);\r\n    }\r\n\r\n   \r\n}",
  "sourcePath": "C:\\Users\\wasio\\Desktop\\dDOC\\contracts\\ROI_POOL.sol",
  "compiler": {
    "name": "solc",
    "version": "0.8.14+commit.80d49f37.Emscripten.clang"
  },
  "schemaVersion": "3.4.9",
  "updatedAt": "2023-02-08T13:44:49.941Z",
  "devdoc": {
    "kind": "dev",
    "methods": {},
    "version": 1
  },
  "userdoc": {
    "kind": "user",
    "methods": {},
    "version": 1
  }
}